{
	"contracts/Datastructures.sol": {
		"DataStructures": {
			"abi": [
				{
					"anonymous": false,
					"inputs": [
						{
							"indexed": false,
							"internalType": "uint256",
							"name": "ID",
							"type": "uint256"
						},
						{
							"indexed": false,
							"internalType": "string",
							"name": "message",
							"type": "string"
						}
					],
					"name": "NewTodoAdded",
					"type": "event"
				},
				{
					"inputs": [
						{
							"internalType": "string",
							"name": "_content",
							"type": "string"
						}
					],
					"name": "addTodo",
					"outputs": [],
					"stateMutability": "nonpayable",
					"type": "function"
				},
				{
					"inputs": [
						{
							"internalType": "uint256",
							"name": "_id",
							"type": "uint256"
						}
					],
					"name": "getTodo",
					"outputs": [
						{
							"components": [
								{
									"internalType": "uint256",
									"name": "id",
									"type": "uint256"
								},
								{
									"internalType": "string",
									"name": "content",
									"type": "string"
								},
								{
									"internalType": "enum DataStructures.Status",
									"name": "status",
									"type": "uint8"
								}
							],
							"internalType": "struct DataStructures.Todo",
							"name": "",
							"type": "tuple"
						}
					],
					"stateMutability": "view",
					"type": "function"
				},
				{
					"inputs": [
						{
							"internalType": "uint256",
							"name": "_id",
							"type": "uint256"
						},
						{
							"internalType": "enum DataStructures.Status",
							"name": "_status",
							"type": "uint8"
						}
					],
					"name": "updateTodo",
					"outputs": [],
					"stateMutability": "nonpayable",
					"type": "function"
				}
			],
			"devdoc": {
				"kind": "dev",
				"methods": {},
				"version": 1
			},
			"evm": {
				"assembly": "    /* \"contracts/Datastructures.sol\":60:1110  contract DataStructures{... */\n  mstore(0x40, 0x80)\n  callvalue\n  dup1\n  iszero\n  tag_1\n  jumpi\n  0x00\n  dup1\n  revert\ntag_1:\n  pop\n  dataSize(sub_0)\n  dup1\n  dataOffset(sub_0)\n  0x00\n  codecopy\n  0x00\n  return\nstop\n\nsub_0: assembly {\n        /* \"contracts/Datastructures.sol\":60:1110  contract DataStructures{... */\n      mstore(0x40, 0x80)\n      callvalue\n      dup1\n      iszero\n      tag_1\n      jumpi\n      0x00\n      dup1\n      revert\n    tag_1:\n      pop\n      jumpi(tag_2, lt(calldatasize, 0x04))\n      shr(0xe0, calldataload(0x00))\n      dup1\n      0x3b6ac521\n      eq\n      tag_3\n      jumpi\n      dup1\n      0x95ffebf5\n      eq\n      tag_4\n      jumpi\n      dup1\n      0xdd68afb6\n      eq\n      tag_5\n      jumpi\n    tag_2:\n      0x00\n      dup1\n      revert\n        /* \"contracts/Datastructures.sol\":810:983  function updateTodo(uint _id, Status _status) checkID(_id) public {... */\n    tag_3:\n      tag_6\n      0x04\n      dup1\n      calldatasize\n      sub\n      dup2\n      add\n      swap1\n      tag_7\n      swap2\n      swap1\n      tag_8\n      jump\t// in\n    tag_7:\n      tag_9\n      jump\t// in\n    tag_6:\n      stop\n        /* \"contracts/Datastructures.sol\":562:804  function addTodo(string memory _content) public {... */\n    tag_4:\n      tag_10\n      0x04\n      dup1\n      calldatasize\n      sub\n      dup2\n      add\n      swap1\n      tag_11\n      swap2\n      swap1\n      tag_12\n      jump\t// in\n    tag_11:\n      tag_13\n      jump\t// in\n    tag_10:\n      stop\n        /* \"contracts/Datastructures.sol\":989:1108  function getTodo(uint _id) checkID(_id) view public  returns (Todo memory)  {... */\n    tag_5:\n      tag_14\n      0x04\n      dup1\n      calldatasize\n      sub\n      dup2\n      add\n      swap1\n      tag_15\n      swap2\n      swap1\n      tag_16\n      jump\t// in\n    tag_15:\n      tag_17\n      jump\t// in\n    tag_14:\n      mload(0x40)\n      tag_18\n      swap2\n      swap1\n      tag_19\n      jump\t// in\n    tag_18:\n      mload(0x40)\n      dup1\n      swap2\n      sub\n      swap1\n      return\n        /* \"contracts/Datastructures.sol\":810:983  function updateTodo(uint _id, Status _status) checkID(_id) public {... */\n    tag_9:\n        /* \"contracts/Datastructures.sol\":864:867  _id */\n      dup2\n        /* \"contracts/Datastructures.sol\":474:475  0 */\n      0x00\n        /* \"contracts/Datastructures.sol\":468:471  _id */\n      dup2\n        /* \"contracts/Datastructures.sol\":468:475  _id > 0 */\n      gt\n        /* \"contracts/Datastructures.sol\":468:500  _id > 0 && _id <= todoIDs.length */\n      dup1\n      iszero\n      tag_21\n      jumpi\n      pop\n        /* \"contracts/Datastructures.sol\":486:493  todoIDs */\n      0x01\n        /* \"contracts/Datastructures.sol\":486:500  todoIDs.length */\n      dup1\n      sload\n      swap1\n      pop\n        /* \"contracts/Datastructures.sol\":479:482  _id */\n      dup2\n        /* \"contracts/Datastructures.sol\":479:500  _id <= todoIDs.length */\n      gt\n      iszero\n        /* \"contracts/Datastructures.sol\":468:500  _id > 0 && _id <= todoIDs.length */\n    tag_21:\n        /* \"contracts/Datastructures.sol\":460:538  require(_id > 0 && _id <= todoIDs.length, \"DataStructures: Todo ID not found\") */\n      tag_22\n      jumpi\n      mload(0x40)\n      0x08c379a000000000000000000000000000000000000000000000000000000000\n      dup2\n      mstore\n      0x04\n      add\n      tag_23\n      swap1\n      tag_24\n      jump\t// in\n    tag_23:\n      mload(0x40)\n      dup1\n      swap2\n      sub\n      swap1\n      revert\n    tag_22:\n        /* \"contracts/Datastructures.sol\":886:903  Todo memory _todo */\n      0x00\n        /* \"contracts/Datastructures.sol\":906:911  todos */\n      dup1\n        /* \"contracts/Datastructures.sol\":906:916  todos[_id] */\n      0x00\n        /* \"contracts/Datastructures.sol\":912:915  _id */\n      dup6\n        /* \"contracts/Datastructures.sol\":906:916  todos[_id] */\n      dup2\n      mstore\n      0x20\n      add\n      swap1\n      dup2\n      mstore\n      0x20\n      add\n      0x00\n      keccak256\n        /* \"contracts/Datastructures.sol\":886:916  Todo memory _todo = todos[_id] */\n      mload(0x40)\n      dup1\n      0x60\n      add\n      0x40\n      mstore\n      swap1\n      dup2\n      0x00\n      dup3\n      add\n      sload\n      dup2\n      mstore\n      0x20\n      add\n      0x01\n      dup3\n      add\n      dup1\n      sload\n      tag_26\n      swap1\n      tag_27\n      jump\t// in\n    tag_26:\n      dup1\n      0x1f\n      add\n      0x20\n      dup1\n      swap2\n      div\n      mul\n      0x20\n      add\n      mload(0x40)\n      swap1\n      dup2\n      add\n      0x40\n      mstore\n      dup1\n      swap3\n      swap2\n      swap1\n      dup2\n      dup2\n      mstore\n      0x20\n      add\n      dup3\n      dup1\n      sload\n      tag_28\n      swap1\n      tag_27\n      jump\t// in\n    tag_28:\n      dup1\n      iszero\n      tag_29\n      jumpi\n      dup1\n      0x1f\n      lt\n      tag_30\n      jumpi\n      0x0100\n      dup1\n      dup4\n      sload\n      div\n      mul\n      dup4\n      mstore\n      swap2\n      0x20\n      add\n      swap2\n      jump(tag_29)\n    tag_30:\n      dup3\n      add\n      swap2\n      swap1\n      0x00\n      mstore\n      keccak256(0x00, 0x20)\n      swap1\n    tag_31:\n      dup2\n      sload\n      dup2\n      mstore\n      swap1\n      0x01\n      add\n      swap1\n      0x20\n      add\n      dup1\n      dup4\n      gt\n      tag_31\n      jumpi\n      dup3\n      swap1\n      sub\n      0x1f\n      and\n      dup3\n      add\n      swap2\n    tag_29:\n      pop\n      pop\n      pop\n      pop\n      pop\n      dup2\n      mstore\n      0x20\n      add\n      0x02\n      dup3\n      add\n      0x00\n      swap1\n      sload\n      swap1\n      0x0100\n      exp\n      swap1\n      div\n      0xff\n      and\n      0x02\n      dup2\n      gt\n      iszero\n      tag_32\n      jumpi\n      tag_33\n      tag_34\n      jump\t// in\n    tag_33:\n    tag_32:\n      0x02\n      dup2\n      gt\n      iszero\n      tag_35\n      jumpi\n      tag_36\n      tag_34\n      jump\t// in\n    tag_36:\n    tag_35:\n      dup2\n      mstore\n      pop\n      pop\n      swap1\n      pop\n        /* \"contracts/Datastructures.sol\":941:948  _status */\n      dup3\n        /* \"contracts/Datastructures.sol\":926:931  _todo */\n      dup2\n        /* \"contracts/Datastructures.sol\":926:938  _todo.status */\n      0x40\n      add\n        /* \"contracts/Datastructures.sol\":926:948  _todo.status = _status */\n      swap1\n      0x02\n      dup2\n      gt\n      iszero\n      tag_37\n      jumpi\n      tag_38\n      tag_34\n      jump\t// in\n    tag_38:\n    tag_37:\n      swap1\n      dup2\n      0x02\n      dup2\n      gt\n      iszero\n      tag_39\n      jumpi\n      tag_40\n      tag_34\n      jump\t// in\n    tag_40:\n    tag_39:\n      dup2\n      mstore\n      pop\n      pop\n        /* \"contracts/Datastructures.sol\":971:976  _todo */\n      dup1\n        /* \"contracts/Datastructures.sol\":958:963  todos */\n      0x00\n        /* \"contracts/Datastructures.sol\":958:968  todos[_id] */\n      dup1\n        /* \"contracts/Datastructures.sol\":964:967  _id */\n      dup7\n        /* \"contracts/Datastructures.sol\":958:968  todos[_id] */\n      dup2\n      mstore\n      0x20\n      add\n      swap1\n      dup2\n      mstore\n      0x20\n      add\n      0x00\n      keccak256\n        /* \"contracts/Datastructures.sol\":958:976  todos[_id] = _todo */\n      0x00\n      dup3\n      add\n      mload\n      dup2\n      0x00\n      add\n      sstore\n      0x20\n      dup3\n      add\n      mload\n      dup2\n      0x01\n      add\n      swap1\n      dup2\n      tag_41\n      swap2\n      swap1\n      tag_42\n      jump\t// in\n    tag_41:\n      pop\n      0x40\n      dup3\n      add\n      mload\n      dup2\n      0x02\n      add\n      exp(0x0100, 0x00)\n      dup2\n      sload\n      dup2\n      0xff\n      mul\n      not\n      and\n      swap1\n      dup4\n      0x02\n      dup2\n      gt\n      iszero\n      tag_43\n      jumpi\n      tag_44\n      tag_34\n      jump\t// in\n    tag_44:\n    tag_43:\n      mul\n      or\n      swap1\n      sstore\n      pop\n      swap1\n      pop\n      pop\n        /* \"contracts/Datastructures.sol\":876:983  {... */\n      pop\n        /* \"contracts/Datastructures.sol\":810:983  function updateTodo(uint _id, Status _status) checkID(_id) public {... */\n      pop\n      pop\n      pop\n      jump\t// out\n        /* \"contracts/Datastructures.sol\":562:804  function addTodo(string memory _content) public {... */\n    tag_13:\n        /* \"contracts/Datastructures.sol\":620:630  uint newID */\n      0x00\n        /* \"contracts/Datastructures.sol\":650:651  1 */\n      0x01\n        /* \"contracts/Datastructures.sol\":633:640  todoIDs */\n      dup1\n        /* \"contracts/Datastructures.sol\":633:647  todoIDs.length */\n      dup1\n      sload\n      swap1\n      pop\n        /* \"contracts/Datastructures.sol\":633:651  todoIDs.length + 1 */\n      tag_46\n      swap2\n      swap1\n      tag_47\n      jump\t// in\n    tag_46:\n        /* \"contracts/Datastructures.sol\":620:651  uint newID = todoIDs.length + 1 */\n      swap1\n      pop\n        /* \"contracts/Datastructures.sol\":676:711  Todo(newID,_content,Status.Pending) */\n      mload(0x40)\n      dup1\n      0x60\n      add\n      0x40\n      mstore\n      dup1\n        /* \"contracts/Datastructures.sol\":681:686  newID */\n      dup3\n        /* \"contracts/Datastructures.sol\":676:711  Todo(newID,_content,Status.Pending) */\n      dup2\n      mstore\n      0x20\n      add\n        /* \"contracts/Datastructures.sol\":687:695  _content */\n      dup4\n        /* \"contracts/Datastructures.sol\":676:711  Todo(newID,_content,Status.Pending) */\n      dup2\n      mstore\n      0x20\n      add\n        /* \"contracts/Datastructures.sol\":696:710  Status.Pending */\n      0x00\n        /* \"contracts/Datastructures.sol\":676:711  Todo(newID,_content,Status.Pending) */\n      0x02\n      dup2\n      gt\n      iszero\n      tag_48\n      jumpi\n      tag_49\n      tag_34\n      jump\t// in\n    tag_49:\n    tag_48:\n      dup2\n      mstore\n      pop\n        /* \"contracts/Datastructures.sol\":661:666  todos */\n      0x00\n        /* \"contracts/Datastructures.sol\":661:673  todos[newID] */\n      dup1\n        /* \"contracts/Datastructures.sol\":667:672  newID */\n      dup4\n        /* \"contracts/Datastructures.sol\":661:673  todos[newID] */\n      dup2\n      mstore\n      0x20\n      add\n      swap1\n      dup2\n      mstore\n      0x20\n      add\n      0x00\n      keccak256\n        /* \"contracts/Datastructures.sol\":661:711  todos[newID] = Todo(newID,_content,Status.Pending) */\n      0x00\n      dup3\n      add\n      mload\n      dup2\n      0x00\n      add\n      sstore\n      0x20\n      dup3\n      add\n      mload\n      dup2\n      0x01\n      add\n      swap1\n      dup2\n      tag_50\n      swap2\n      swap1\n      tag_42\n      jump\t// in\n    tag_50:\n      pop\n      0x40\n      dup3\n      add\n      mload\n      dup2\n      0x02\n      add\n      exp(0x0100, 0x00)\n      dup2\n      sload\n      dup2\n      0xff\n      mul\n      not\n      and\n      swap1\n      dup4\n      0x02\n      dup2\n      gt\n      iszero\n      tag_51\n      jumpi\n      tag_52\n      tag_34\n      jump\t// in\n    tag_52:\n    tag_51:\n      mul\n      or\n      swap1\n      sstore\n      pop\n      swap1\n      pop\n      pop\n        /* \"contracts/Datastructures.sol\":721:728  todoIDs */\n      0x01\n        /* \"contracts/Datastructures.sol\":734:739  newID */\n      dup2\n        /* \"contracts/Datastructures.sol\":721:740  todoIDs.push(newID) */\n      swap1\n      dup1\n      0x01\n      dup2\n      sload\n      add\n      dup1\n      dup3\n      sstore\n      dup1\n      swap2\n      pop\n      pop\n      0x01\n      swap1\n      sub\n      swap1\n      0x00\n      mstore\n      keccak256(0x00, 0x20)\n      add\n      0x00\n      swap1\n      swap2\n      swap1\n      swap2\n      swap1\n      swap2\n      pop\n      sstore\n        /* \"contracts/Datastructures.sol\":755:797  NewTodoAdded(newID, \"New todo item added\") */\n      0x6bc1a4d9dd456584b8d64c1012188014d261efcf8efd8149ad6a3f297717f277\n        /* \"contracts/Datastructures.sol\":768:773  newID */\n      dup2\n        /* \"contracts/Datastructures.sol\":755:797  NewTodoAdded(newID, \"New todo item added\") */\n      mload(0x40)\n      tag_54\n      swap2\n      swap1\n      tag_55\n      jump\t// in\n    tag_54:\n      mload(0x40)\n      dup1\n      swap2\n      sub\n      swap1\n      log1\n        /* \"contracts/Datastructures.sol\":610:804  {... */\n      pop\n        /* \"contracts/Datastructures.sol\":562:804  function addTodo(string memory _content) public {... */\n      pop\n      jump\t// out\n        /* \"contracts/Datastructures.sol\":989:1108  function getTodo(uint _id) checkID(_id) view public  returns (Todo memory)  {... */\n    tag_17:\n        /* \"contracts/Datastructures.sol\":1051:1062  Todo memory */\n      tag_56\n      tag_57\n      jump\t// in\n    tag_56:\n        /* \"contracts/Datastructures.sol\":1024:1027  _id */\n      dup2\n        /* \"contracts/Datastructures.sol\":474:475  0 */\n      0x00\n        /* \"contracts/Datastructures.sol\":468:471  _id */\n      dup2\n        /* \"contracts/Datastructures.sol\":468:475  _id > 0 */\n      gt\n        /* \"contracts/Datastructures.sol\":468:500  _id > 0 && _id <= todoIDs.length */\n      dup1\n      iszero\n      tag_59\n      jumpi\n      pop\n        /* \"contracts/Datastructures.sol\":486:493  todoIDs */\n      0x01\n        /* \"contracts/Datastructures.sol\":486:500  todoIDs.length */\n      dup1\n      sload\n      swap1\n      pop\n        /* \"contracts/Datastructures.sol\":479:482  _id */\n      dup2\n        /* \"contracts/Datastructures.sol\":479:500  _id <= todoIDs.length */\n      gt\n      iszero\n        /* \"contracts/Datastructures.sol\":468:500  _id > 0 && _id <= todoIDs.length */\n    tag_59:\n        /* \"contracts/Datastructures.sol\":460:538  require(_id > 0 && _id <= todoIDs.length, \"DataStructures: Todo ID not found\") */\n      tag_60\n      jumpi\n      mload(0x40)\n      0x08c379a000000000000000000000000000000000000000000000000000000000\n      dup2\n      mstore\n      0x04\n      add\n      tag_61\n      swap1\n      tag_24\n      jump\t// in\n    tag_61:\n      mload(0x40)\n      dup1\n      swap2\n      sub\n      swap1\n      revert\n    tag_60:\n        /* \"contracts/Datastructures.sol\":1091:1096  todos */\n      0x00\n        /* \"contracts/Datastructures.sol\":1091:1101  todos[_id] */\n      dup1\n        /* \"contracts/Datastructures.sol\":1097:1100  _id */\n      dup5\n        /* \"contracts/Datastructures.sol\":1091:1101  todos[_id] */\n      dup2\n      mstore\n      0x20\n      add\n      swap1\n      dup2\n      mstore\n      0x20\n      add\n      0x00\n      keccak256\n        /* \"contracts/Datastructures.sol\":1084:1101  return todos[_id] */\n      mload(0x40)\n      dup1\n      0x60\n      add\n      0x40\n      mstore\n      swap1\n      dup2\n      0x00\n      dup3\n      add\n      sload\n      dup2\n      mstore\n      0x20\n      add\n      0x01\n      dup3\n      add\n      dup1\n      sload\n      tag_63\n      swap1\n      tag_27\n      jump\t// in\n    tag_63:\n      dup1\n      0x1f\n      add\n      0x20\n      dup1\n      swap2\n      div\n      mul\n      0x20\n      add\n      mload(0x40)\n      swap1\n      dup2\n      add\n      0x40\n      mstore\n      dup1\n      swap3\n      swap2\n      swap1\n      dup2\n      dup2\n      mstore\n      0x20\n      add\n      dup3\n      dup1\n      sload\n      tag_64\n      swap1\n      tag_27\n      jump\t// in\n    tag_64:\n      dup1\n      iszero\n      tag_65\n      jumpi\n      dup1\n      0x1f\n      lt\n      tag_66\n      jumpi\n      0x0100\n      dup1\n      dup4\n      sload\n      div\n      mul\n      dup4\n      mstore\n      swap2\n      0x20\n      add\n      swap2\n      jump(tag_65)\n    tag_66:\n      dup3\n      add\n      swap2\n      swap1\n      0x00\n      mstore\n      keccak256(0x00, 0x20)\n      swap1\n    tag_67:\n      dup2\n      sload\n      dup2\n      mstore\n      swap1\n      0x01\n      add\n      swap1\n      0x20\n      add\n      dup1\n      dup4\n      gt\n      tag_67\n      jumpi\n      dup3\n      swap1\n      sub\n      0x1f\n      and\n      dup3\n      add\n      swap2\n    tag_65:\n      pop\n      pop\n      pop\n      pop\n      pop\n      dup2\n      mstore\n      0x20\n      add\n      0x02\n      dup3\n      add\n      0x00\n      swap1\n      sload\n      swap1\n      0x0100\n      exp\n      swap1\n      div\n      0xff\n      and\n      0x02\n      dup2\n      gt\n      iszero\n      tag_68\n      jumpi\n      tag_69\n      tag_34\n      jump\t// in\n    tag_69:\n    tag_68:\n      0x02\n      dup2\n      gt\n      iszero\n      tag_70\n      jumpi\n      tag_71\n      tag_34\n      jump\t// in\n    tag_71:\n    tag_70:\n      dup2\n      mstore\n      pop\n      pop\n      swap2\n      pop\n        /* \"contracts/Datastructures.sol\":989:1108  function getTodo(uint _id) checkID(_id) view public  returns (Todo memory)  {... */\n      pop\n      swap2\n      swap1\n      pop\n      jump\t// out\n    tag_57:\n      mload(0x40)\n      dup1\n      0x60\n      add\n      0x40\n      mstore\n      dup1\n      0x00\n      dup2\n      mstore\n      0x20\n      add\n      0x60\n      dup2\n      mstore\n      0x20\n      add\n      0x00\n      0x02\n      dup2\n      gt\n      iszero\n      tag_72\n      jumpi\n      tag_73\n      tag_34\n      jump\t// in\n    tag_73:\n    tag_72:\n      dup2\n      mstore\n      pop\n      swap1\n      jump\t// out\n        /* \"#utility.yul\":7:82   */\n    tag_74:\n        /* \"#utility.yul\":40:46   */\n      0x00\n        /* \"#utility.yul\":73:75   */\n      0x40\n        /* \"#utility.yul\":67:76   */\n      mload\n        /* \"#utility.yul\":57:76   */\n      swap1\n      pop\n        /* \"#utility.yul\":7:82   */\n      swap1\n      jump\t// out\n        /* \"#utility.yul\":88:205   */\n    tag_75:\n        /* \"#utility.yul\":197:198   */\n      0x00\n        /* \"#utility.yul\":194:195   */\n      dup1\n        /* \"#utility.yul\":187:199   */\n      revert\n        /* \"#utility.yul\":211:328   */\n    tag_76:\n        /* \"#utility.yul\":320:321   */\n      0x00\n        /* \"#utility.yul\":317:318   */\n      dup1\n        /* \"#utility.yul\":310:322   */\n      revert\n        /* \"#utility.yul\":334:411   */\n    tag_77:\n        /* \"#utility.yul\":371:378   */\n      0x00\n        /* \"#utility.yul\":400:405   */\n      dup2\n        /* \"#utility.yul\":389:405   */\n      swap1\n      pop\n        /* \"#utility.yul\":334:411   */\n      swap2\n      swap1\n      pop\n      jump\t// out\n        /* \"#utility.yul\":417:539   */\n    tag_78:\n        /* \"#utility.yul\":490:514   */\n      tag_131\n        /* \"#utility.yul\":508:513   */\n      dup2\n        /* \"#utility.yul\":490:514   */\n      tag_77\n      jump\t// in\n    tag_131:\n        /* \"#utility.yul\":483:488   */\n      dup2\n        /* \"#utility.yul\":480:515   */\n      eq\n        /* \"#utility.yul\":470:533   */\n      tag_132\n      jumpi\n        /* \"#utility.yul\":529:530   */\n      0x00\n        /* \"#utility.yul\":526:527   */\n      dup1\n        /* \"#utility.yul\":519:531   */\n      revert\n        /* \"#utility.yul\":470:533   */\n    tag_132:\n        /* \"#utility.yul\":417:539   */\n      pop\n      jump\t// out\n        /* \"#utility.yul\":545:684   */\n    tag_79:\n        /* \"#utility.yul\":591:596   */\n      0x00\n        /* \"#utility.yul\":629:635   */\n      dup2\n        /* \"#utility.yul\":616:636   */\n      calldataload\n        /* \"#utility.yul\":607:636   */\n      swap1\n      pop\n        /* \"#utility.yul\":645:678   */\n      tag_134\n        /* \"#utility.yul\":672:677   */\n      dup2\n        /* \"#utility.yul\":645:678   */\n      tag_78\n      jump\t// in\n    tag_134:\n        /* \"#utility.yul\":545:684   */\n      swap3\n      swap2\n      pop\n      pop\n      jump\t// out\n        /* \"#utility.yul\":690:797   */\n    tag_80:\n        /* \"#utility.yul\":771:772   */\n      0x03\n        /* \"#utility.yul\":764:769   */\n      dup2\n        /* \"#utility.yul\":761:773   */\n      lt\n        /* \"#utility.yul\":751:791   */\n      tag_136\n      jumpi\n        /* \"#utility.yul\":787:788   */\n      0x00\n        /* \"#utility.yul\":784:785   */\n      dup1\n        /* \"#utility.yul\":777:789   */\n      revert\n        /* \"#utility.yul\":751:791   */\n    tag_136:\n        /* \"#utility.yul\":690:797   */\n      pop\n      jump\t// out\n        /* \"#utility.yul\":803:958   */\n    tag_81:\n        /* \"#utility.yul\":857:862   */\n      0x00\n        /* \"#utility.yul\":895:901   */\n      dup2\n        /* \"#utility.yul\":882:902   */\n      calldataload\n        /* \"#utility.yul\":873:902   */\n      swap1\n      pop\n        /* \"#utility.yul\":911:952   */\n      tag_138\n        /* \"#utility.yul\":946:951   */\n      dup2\n        /* \"#utility.yul\":911:952   */\n      tag_80\n      jump\t// in\n    tag_138:\n        /* \"#utility.yul\":803:958   */\n      swap3\n      swap2\n      pop\n      pop\n      jump\t// out\n        /* \"#utility.yul\":964:1454   */\n    tag_8:\n        /* \"#utility.yul\":1040:1046   */\n      0x00\n        /* \"#utility.yul\":1048:1054   */\n      dup1\n        /* \"#utility.yul\":1097:1099   */\n      0x40\n        /* \"#utility.yul\":1085:1094   */\n      dup4\n        /* \"#utility.yul\":1076:1083   */\n      dup6\n        /* \"#utility.yul\":1072:1095   */\n      sub\n        /* \"#utility.yul\":1068:1100   */\n      slt\n        /* \"#utility.yul\":1065:1184   */\n      iszero\n      tag_140\n      jumpi\n        /* \"#utility.yul\":1103:1182   */\n      tag_141\n      tag_75\n      jump\t// in\n    tag_141:\n        /* \"#utility.yul\":1065:1184   */\n    tag_140:\n        /* \"#utility.yul\":1223:1224   */\n      0x00\n        /* \"#utility.yul\":1248:1301   */\n      tag_142\n        /* \"#utility.yul\":1293:1300   */\n      dup6\n        /* \"#utility.yul\":1284:1290   */\n      dup3\n        /* \"#utility.yul\":1273:1282   */\n      dup7\n        /* \"#utility.yul\":1269:1291   */\n      add\n        /* \"#utility.yul\":1248:1301   */\n      tag_79\n      jump\t// in\n    tag_142:\n        /* \"#utility.yul\":1238:1301   */\n      swap3\n      pop\n        /* \"#utility.yul\":1194:1311   */\n      pop\n        /* \"#utility.yul\":1350:1352   */\n      0x20\n        /* \"#utility.yul\":1376:1437   */\n      tag_143\n        /* \"#utility.yul\":1429:1436   */\n      dup6\n        /* \"#utility.yul\":1420:1426   */\n      dup3\n        /* \"#utility.yul\":1409:1418   */\n      dup7\n        /* \"#utility.yul\":1405:1427   */\n      add\n        /* \"#utility.yul\":1376:1437   */\n      tag_81\n      jump\t// in\n    tag_143:\n        /* \"#utility.yul\":1366:1437   */\n      swap2\n      pop\n        /* \"#utility.yul\":1321:1447   */\n      pop\n        /* \"#utility.yul\":964:1454   */\n      swap3\n      pop\n      swap3\n      swap1\n      pop\n      jump\t// out\n        /* \"#utility.yul\":1460:1577   */\n    tag_82:\n        /* \"#utility.yul\":1569:1570   */\n      0x00\n        /* \"#utility.yul\":1566:1567   */\n      dup1\n        /* \"#utility.yul\":1559:1571   */\n      revert\n        /* \"#utility.yul\":1583:1700   */\n    tag_83:\n        /* \"#utility.yul\":1692:1693   */\n      0x00\n        /* \"#utility.yul\":1689:1690   */\n      dup1\n        /* \"#utility.yul\":1682:1694   */\n      revert\n        /* \"#utility.yul\":1706:1808   */\n    tag_84:\n        /* \"#utility.yul\":1747:1753   */\n      0x00\n        /* \"#utility.yul\":1798:1800   */\n      0x1f\n        /* \"#utility.yul\":1794:1801   */\n      not\n        /* \"#utility.yul\":1789:1791   */\n      0x1f\n        /* \"#utility.yul\":1782:1787   */\n      dup4\n        /* \"#utility.yul\":1778:1792   */\n      add\n        /* \"#utility.yul\":1774:1802   */\n      and\n        /* \"#utility.yul\":1764:1802   */\n      swap1\n      pop\n        /* \"#utility.yul\":1706:1808   */\n      swap2\n      swap1\n      pop\n      jump\t// out\n        /* \"#utility.yul\":1814:1994   */\n    tag_85:\n        /* \"#utility.yul\":1862:1939   */\n      0x4e487b7100000000000000000000000000000000000000000000000000000000\n        /* \"#utility.yul\":1859:1860   */\n      0x00\n        /* \"#utility.yul\":1852:1940   */\n      mstore\n        /* \"#utility.yul\":1959:1963   */\n      0x41\n        /* \"#utility.yul\":1956:1957   */\n      0x04\n        /* \"#utility.yul\":1949:1964   */\n      mstore\n        /* \"#utility.yul\":1983:1987   */\n      0x24\n        /* \"#utility.yul\":1980:1981   */\n      0x00\n        /* \"#utility.yul\":1973:1988   */\n      revert\n        /* \"#utility.yul\":2000:2281   */\n    tag_86:\n        /* \"#utility.yul\":2083:2110   */\n      tag_149\n        /* \"#utility.yul\":2105:2109   */\n      dup3\n        /* \"#utility.yul\":2083:2110   */\n      tag_84\n      jump\t// in\n    tag_149:\n        /* \"#utility.yul\":2075:2081   */\n      dup2\n        /* \"#utility.yul\":2071:2111   */\n      add\n        /* \"#utility.yul\":2213:2219   */\n      dup2\n        /* \"#utility.yul\":2201:2211   */\n      dup2\n        /* \"#utility.yul\":2198:2220   */\n      lt\n        /* \"#utility.yul\":2177:2195   */\n      0xffffffffffffffff\n        /* \"#utility.yul\":2165:2175   */\n      dup3\n        /* \"#utility.yul\":2162:2196   */\n      gt\n        /* \"#utility.yul\":2159:2221   */\n      or\n        /* \"#utility.yul\":2156:2244   */\n      iszero\n      tag_150\n      jumpi\n        /* \"#utility.yul\":2224:2242   */\n      tag_151\n      tag_85\n      jump\t// in\n    tag_151:\n        /* \"#utility.yul\":2156:2244   */\n    tag_150:\n        /* \"#utility.yul\":2264:2274   */\n      dup1\n        /* \"#utility.yul\":2260:2262   */\n      0x40\n        /* \"#utility.yul\":2253:2275   */\n      mstore\n        /* \"#utility.yul\":2043:2281   */\n      pop\n        /* \"#utility.yul\":2000:2281   */\n      pop\n      pop\n      jump\t// out\n        /* \"#utility.yul\":2287:2416   */\n    tag_87:\n        /* \"#utility.yul\":2321:2327   */\n      0x00\n        /* \"#utility.yul\":2348:2368   */\n      tag_153\n      tag_74\n      jump\t// in\n    tag_153:\n        /* \"#utility.yul\":2338:2368   */\n      swap1\n      pop\n        /* \"#utility.yul\":2377:2410   */\n      tag_154\n        /* \"#utility.yul\":2405:2409   */\n      dup3\n        /* \"#utility.yul\":2397:2403   */\n      dup3\n        /* \"#utility.yul\":2377:2410   */\n      tag_86\n      jump\t// in\n    tag_154:\n        /* \"#utility.yul\":2287:2416   */\n      swap2\n      swap1\n      pop\n      jump\t// out\n        /* \"#utility.yul\":2422:2730   */\n    tag_88:\n        /* \"#utility.yul\":2484:2488   */\n      0x00\n        /* \"#utility.yul\":2574:2592   */\n      0xffffffffffffffff\n        /* \"#utility.yul\":2566:2572   */\n      dup3\n        /* \"#utility.yul\":2563:2593   */\n      gt\n        /* \"#utility.yul\":2560:2616   */\n      iszero\n      tag_156\n      jumpi\n        /* \"#utility.yul\":2596:2614   */\n      tag_157\n      tag_85\n      jump\t// in\n    tag_157:\n        /* \"#utility.yul\":2560:2616   */\n    tag_156:\n        /* \"#utility.yul\":2634:2663   */\n      tag_158\n        /* \"#utility.yul\":2656:2662   */\n      dup3\n        /* \"#utility.yul\":2634:2663   */\n      tag_84\n      jump\t// in\n    tag_158:\n        /* \"#utility.yul\":2626:2663   */\n      swap1\n      pop\n        /* \"#utility.yul\":2718:2722   */\n      0x20\n        /* \"#utility.yul\":2712:2716   */\n      dup2\n        /* \"#utility.yul\":2708:2723   */\n      add\n        /* \"#utility.yul\":2700:2723   */\n      swap1\n      pop\n        /* \"#utility.yul\":2422:2730   */\n      swap2\n      swap1\n      pop\n      jump\t// out\n        /* \"#utility.yul\":2736:2884   */\n    tag_89:\n        /* \"#utility.yul\":2834:2840   */\n      dup3\n        /* \"#utility.yul\":2829:2832   */\n      dup2\n        /* \"#utility.yul\":2824:2827   */\n      dup4\n        /* \"#utility.yul\":2811:2841   */\n      calldatacopy\n        /* \"#utility.yul\":2875:2876   */\n      0x00\n        /* \"#utility.yul\":2866:2872   */\n      dup4\n        /* \"#utility.yul\":2861:2864   */\n      dup4\n        /* \"#utility.yul\":2857:2873   */\n      add\n        /* \"#utility.yul\":2850:2877   */\n      mstore\n        /* \"#utility.yul\":2736:2884   */\n      pop\n      pop\n      pop\n      jump\t// out\n        /* \"#utility.yul\":2890:3315   */\n    tag_90:\n        /* \"#utility.yul\":2968:2973   */\n      0x00\n        /* \"#utility.yul\":2993:3059   */\n      tag_161\n        /* \"#utility.yul\":3009:3058   */\n      tag_162\n        /* \"#utility.yul\":3051:3057   */\n      dup5\n        /* \"#utility.yul\":3009:3058   */\n      tag_88\n      jump\t// in\n    tag_162:\n        /* \"#utility.yul\":2993:3059   */\n      tag_87\n      jump\t// in\n    tag_161:\n        /* \"#utility.yul\":2984:3059   */\n      swap1\n      pop\n        /* \"#utility.yul\":3082:3088   */\n      dup3\n        /* \"#utility.yul\":3075:3080   */\n      dup2\n        /* \"#utility.yul\":3068:3089   */\n      mstore\n        /* \"#utility.yul\":3120:3124   */\n      0x20\n        /* \"#utility.yul\":3113:3118   */\n      dup2\n        /* \"#utility.yul\":3109:3125   */\n      add\n        /* \"#utility.yul\":3158:3161   */\n      dup5\n        /* \"#utility.yul\":3149:3155   */\n      dup5\n        /* \"#utility.yul\":3144:3147   */\n      dup5\n        /* \"#utility.yul\":3140:3156   */\n      add\n        /* \"#utility.yul\":3137:3162   */\n      gt\n        /* \"#utility.yul\":3134:3246   */\n      iszero\n      tag_163\n      jumpi\n        /* \"#utility.yul\":3165:3244   */\n      tag_164\n      tag_83\n      jump\t// in\n    tag_164:\n        /* \"#utility.yul\":3134:3246   */\n    tag_163:\n        /* \"#utility.yul\":3255:3309   */\n      tag_165\n        /* \"#utility.yul\":3302:3308   */\n      dup5\n        /* \"#utility.yul\":3297:3300   */\n      dup3\n        /* \"#utility.yul\":3292:3295   */\n      dup6\n        /* \"#utility.yul\":3255:3309   */\n      tag_89\n      jump\t// in\n    tag_165:\n        /* \"#utility.yul\":2974:3315   */\n      pop\n        /* \"#utility.yul\":2890:3315   */\n      swap4\n      swap3\n      pop\n      pop\n      pop\n      jump\t// out\n        /* \"#utility.yul\":3335:3675   */\n    tag_91:\n        /* \"#utility.yul\":3391:3396   */\n      0x00\n        /* \"#utility.yul\":3440:3443   */\n      dup3\n        /* \"#utility.yul\":3433:3437   */\n      0x1f\n        /* \"#utility.yul\":3425:3431   */\n      dup4\n        /* \"#utility.yul\":3421:3438   */\n      add\n        /* \"#utility.yul\":3417:3444   */\n      slt\n        /* \"#utility.yul\":3407:3529   */\n      tag_167\n      jumpi\n        /* \"#utility.yul\":3448:3527   */\n      tag_168\n      tag_82\n      jump\t// in\n    tag_168:\n        /* \"#utility.yul\":3407:3529   */\n    tag_167:\n        /* \"#utility.yul\":3565:3571   */\n      dup2\n        /* \"#utility.yul\":3552:3572   */\n      calldataload\n        /* \"#utility.yul\":3590:3669   */\n      tag_169\n        /* \"#utility.yul\":3665:3668   */\n      dup5\n        /* \"#utility.yul\":3657:3663   */\n      dup3\n        /* \"#utility.yul\":3650:3654   */\n      0x20\n        /* \"#utility.yul\":3642:3648   */\n      dup7\n        /* \"#utility.yul\":3638:3655   */\n      add\n        /* \"#utility.yul\":3590:3669   */\n      tag_90\n      jump\t// in\n    tag_169:\n        /* \"#utility.yul\":3581:3669   */\n      swap2\n      pop\n        /* \"#utility.yul\":3397:3675   */\n      pop\n        /* \"#utility.yul\":3335:3675   */\n      swap3\n      swap2\n      pop\n      pop\n      jump\t// out\n        /* \"#utility.yul\":3681:4190   */\n    tag_12:\n        /* \"#utility.yul\":3750:3756   */\n      0x00\n        /* \"#utility.yul\":3799:3801   */\n      0x20\n        /* \"#utility.yul\":3787:3796   */\n      dup3\n        /* \"#utility.yul\":3778:3785   */\n      dup5\n        /* \"#utility.yul\":3774:3797   */\n      sub\n        /* \"#utility.yul\":3770:3802   */\n      slt\n        /* \"#utility.yul\":3767:3886   */\n      iszero\n      tag_171\n      jumpi\n        /* \"#utility.yul\":3805:3884   */\n      tag_172\n      tag_75\n      jump\t// in\n    tag_172:\n        /* \"#utility.yul\":3767:3886   */\n    tag_171:\n        /* \"#utility.yul\":3953:3954   */\n      0x00\n        /* \"#utility.yul\":3942:3951   */\n      dup3\n        /* \"#utility.yul\":3938:3955   */\n      add\n        /* \"#utility.yul\":3925:3956   */\n      calldataload\n        /* \"#utility.yul\":3983:4001   */\n      0xffffffffffffffff\n        /* \"#utility.yul\":3975:3981   */\n      dup2\n        /* \"#utility.yul\":3972:4002   */\n      gt\n        /* \"#utility.yul\":3969:4086   */\n      iszero\n      tag_173\n      jumpi\n        /* \"#utility.yul\":4005:4084   */\n      tag_174\n      tag_76\n      jump\t// in\n    tag_174:\n        /* \"#utility.yul\":3969:4086   */\n    tag_173:\n        /* \"#utility.yul\":4110:4173   */\n      tag_175\n        /* \"#utility.yul\":4165:4172   */\n      dup5\n        /* \"#utility.yul\":4156:4162   */\n      dup3\n        /* \"#utility.yul\":4145:4154   */\n      dup6\n        /* \"#utility.yul\":4141:4163   */\n      add\n        /* \"#utility.yul\":4110:4173   */\n      tag_91\n      jump\t// in\n    tag_175:\n        /* \"#utility.yul\":4100:4173   */\n      swap2\n      pop\n        /* \"#utility.yul\":3896:4183   */\n      pop\n        /* \"#utility.yul\":3681:4190   */\n      swap3\n      swap2\n      pop\n      pop\n      jump\t// out\n        /* \"#utility.yul\":4196:4525   */\n    tag_16:\n        /* \"#utility.yul\":4255:4261   */\n      0x00\n        /* \"#utility.yul\":4304:4306   */\n      0x20\n        /* \"#utility.yul\":4292:4301   */\n      dup3\n        /* \"#utility.yul\":4283:4290   */\n      dup5\n        /* \"#utility.yul\":4279:4302   */\n      sub\n        /* \"#utility.yul\":4275:4307   */\n      slt\n        /* \"#utility.yul\":4272:4391   */\n      iszero\n      tag_177\n      jumpi\n        /* \"#utility.yul\":4310:4389   */\n      tag_178\n      tag_75\n      jump\t// in\n    tag_178:\n        /* \"#utility.yul\":4272:4391   */\n    tag_177:\n        /* \"#utility.yul\":4430:4431   */\n      0x00\n        /* \"#utility.yul\":4455:4508   */\n      tag_179\n        /* \"#utility.yul\":4500:4507   */\n      dup5\n        /* \"#utility.yul\":4491:4497   */\n      dup3\n        /* \"#utility.yul\":4480:4489   */\n      dup6\n        /* \"#utility.yul\":4476:4498   */\n      add\n        /* \"#utility.yul\":4455:4508   */\n      tag_79\n      jump\t// in\n    tag_179:\n        /* \"#utility.yul\":4445:4508   */\n      swap2\n      pop\n        /* \"#utility.yul\":4401:4518   */\n      pop\n        /* \"#utility.yul\":4196:4525   */\n      swap3\n      swap2\n      pop\n      pop\n      jump\t// out\n        /* \"#utility.yul\":4531:4639   */\n    tag_92:\n        /* \"#utility.yul\":4608:4632   */\n      tag_181\n        /* \"#utility.yul\":4626:4631   */\n      dup2\n        /* \"#utility.yul\":4608:4632   */\n      tag_77\n      jump\t// in\n    tag_181:\n        /* \"#utility.yul\":4603:4606   */\n      dup3\n        /* \"#utility.yul\":4596:4633   */\n      mstore\n        /* \"#utility.yul\":4531:4639   */\n      pop\n      pop\n      jump\t// out\n        /* \"#utility.yul\":4645:4744   */\n    tag_93:\n        /* \"#utility.yul\":4697:4703   */\n      0x00\n        /* \"#utility.yul\":4731:4736   */\n      dup2\n        /* \"#utility.yul\":4725:4737   */\n      mload\n        /* \"#utility.yul\":4715:4737   */\n      swap1\n      pop\n        /* \"#utility.yul\":4645:4744   */\n      swap2\n      swap1\n      pop\n      jump\t// out\n        /* \"#utility.yul\":4750:4909   */\n    tag_94:\n        /* \"#utility.yul\":4824:4835   */\n      0x00\n        /* \"#utility.yul\":4858:4864   */\n      dup3\n        /* \"#utility.yul\":4853:4856   */\n      dup3\n        /* \"#utility.yul\":4846:4865   */\n      mstore\n        /* \"#utility.yul\":4898:4902   */\n      0x20\n        /* \"#utility.yul\":4893:4896   */\n      dup3\n        /* \"#utility.yul\":4889:4903   */\n      add\n        /* \"#utility.yul\":4874:4903   */\n      swap1\n      pop\n        /* \"#utility.yul\":4750:4909   */\n      swap3\n      swap2\n      pop\n      pop\n      jump\t// out\n        /* \"#utility.yul\":4915:5054   */\n    tag_95:\n        /* \"#utility.yul\":5004:5010   */\n      dup3\n        /* \"#utility.yul\":4999:5002   */\n      dup2\n        /* \"#utility.yul\":4994:4997   */\n      dup4\n        /* \"#utility.yul\":4988:5011   */\n      mcopy\n        /* \"#utility.yul\":5045:5046   */\n      0x00\n        /* \"#utility.yul\":5036:5042   */\n      dup4\n        /* \"#utility.yul\":5031:5034   */\n      dup4\n        /* \"#utility.yul\":5027:5043   */\n      add\n        /* \"#utility.yul\":5020:5047   */\n      mstore\n        /* \"#utility.yul\":4915:5054   */\n      pop\n      pop\n      pop\n      jump\t// out\n        /* \"#utility.yul\":5060:5417   */\n    tag_96:\n        /* \"#utility.yul\":5138:5141   */\n      0x00\n        /* \"#utility.yul\":5166:5205   */\n      tag_186\n        /* \"#utility.yul\":5199:5204   */\n      dup3\n        /* \"#utility.yul\":5166:5205   */\n      tag_93\n      jump\t// in\n    tag_186:\n        /* \"#utility.yul\":5221:5282   */\n      tag_187\n        /* \"#utility.yul\":5275:5281   */\n      dup2\n        /* \"#utility.yul\":5270:5273   */\n      dup6\n        /* \"#utility.yul\":5221:5282   */\n      tag_94\n      jump\t// in\n    tag_187:\n        /* \"#utility.yul\":5214:5282   */\n      swap4\n      pop\n        /* \"#utility.yul\":5291:5356   */\n      tag_188\n        /* \"#utility.yul\":5349:5355   */\n      dup2\n        /* \"#utility.yul\":5344:5347   */\n      dup6\n        /* \"#utility.yul\":5337:5341   */\n      0x20\n        /* \"#utility.yul\":5330:5335   */\n      dup7\n        /* \"#utility.yul\":5326:5342   */\n      add\n        /* \"#utility.yul\":5291:5356   */\n      tag_95\n      jump\t// in\n    tag_188:\n        /* \"#utility.yul\":5381:5410   */\n      tag_189\n        /* \"#utility.yul\":5403:5409   */\n      dup2\n        /* \"#utility.yul\":5381:5410   */\n      tag_84\n      jump\t// in\n    tag_189:\n        /* \"#utility.yul\":5376:5379   */\n      dup5\n        /* \"#utility.yul\":5372:5411   */\n      add\n        /* \"#utility.yul\":5365:5411   */\n      swap2\n      pop\n        /* \"#utility.yul\":5142:5417   */\n      pop\n        /* \"#utility.yul\":5060:5417   */\n      swap3\n      swap2\n      pop\n      pop\n      jump\t// out\n        /* \"#utility.yul\":5423:5603   */\n    tag_34:\n        /* \"#utility.yul\":5471:5548   */\n      0x4e487b7100000000000000000000000000000000000000000000000000000000\n        /* \"#utility.yul\":5468:5469   */\n      0x00\n        /* \"#utility.yul\":5461:5549   */\n      mstore\n        /* \"#utility.yul\":5568:5572   */\n      0x21\n        /* \"#utility.yul\":5565:5566   */\n      0x04\n        /* \"#utility.yul\":5558:5573   */\n      mstore\n        /* \"#utility.yul\":5592:5596   */\n      0x24\n        /* \"#utility.yul\":5589:5590   */\n      0x00\n        /* \"#utility.yul\":5582:5597   */\n      revert\n        /* \"#utility.yul\":5609:5722   */\n    tag_97:\n        /* \"#utility.yul\":5690:5691   */\n      0x03\n        /* \"#utility.yul\":5683:5688   */\n      dup2\n        /* \"#utility.yul\":5680:5692   */\n      lt\n        /* \"#utility.yul\":5670:5716   */\n      tag_192\n      jumpi\n        /* \"#utility.yul\":5696:5714   */\n      tag_193\n      tag_34\n      jump\t// in\n    tag_193:\n        /* \"#utility.yul\":5670:5716   */\n    tag_192:\n        /* \"#utility.yul\":5609:5722   */\n      pop\n      jump\t// out\n        /* \"#utility.yul\":5728:5855   */\n    tag_98:\n        /* \"#utility.yul\":5773:5780   */\n      0x00\n        /* \"#utility.yul\":5802:5807   */\n      dup2\n        /* \"#utility.yul\":5791:5807   */\n      swap1\n      pop\n        /* \"#utility.yul\":5808:5849   */\n      tag_195\n        /* \"#utility.yul\":5843:5848   */\n      dup3\n        /* \"#utility.yul\":5808:5849   */\n      tag_97\n      jump\t// in\n    tag_195:\n        /* \"#utility.yul\":5728:5855   */\n      swap2\n      swap1\n      pop\n      jump\t// out\n        /* \"#utility.yul\":5861:5988   */\n    tag_99:\n        /* \"#utility.yul\":5917:5926   */\n      0x00\n        /* \"#utility.yul\":5950:5982   */\n      tag_197\n        /* \"#utility.yul\":5976:5981   */\n      dup3\n        /* \"#utility.yul\":5950:5982   */\n      tag_98\n      jump\t// in\n    tag_197:\n        /* \"#utility.yul\":5937:5982   */\n      swap1\n      pop\n        /* \"#utility.yul\":5861:5988   */\n      swap2\n      swap1\n      pop\n      jump\t// out\n        /* \"#utility.yul\":5994:6127   */\n    tag_100:\n        /* \"#utility.yul\":6077:6120   */\n      tag_199\n        /* \"#utility.yul\":6114:6119   */\n      dup2\n        /* \"#utility.yul\":6077:6120   */\n      tag_99\n      jump\t// in\n    tag_199:\n        /* \"#utility.yul\":6072:6075   */\n      dup3\n        /* \"#utility.yul\":6065:6121   */\n      mstore\n        /* \"#utility.yul\":5994:6127   */\n      pop\n      pop\n      jump\t// out\n        /* \"#utility.yul\":6197:6976   */\n    tag_101:\n        /* \"#utility.yul\":6306:6309   */\n      0x00\n        /* \"#utility.yul\":6342:6346   */\n      0x60\n        /* \"#utility.yul\":6337:6340   */\n      dup4\n        /* \"#utility.yul\":6333:6347   */\n      add\n        /* \"#utility.yul\":6427:6431   */\n      0x00\n        /* \"#utility.yul\":6420:6425   */\n      dup4\n        /* \"#utility.yul\":6416:6432   */\n      add\n        /* \"#utility.yul\":6410:6433   */\n      mload\n        /* \"#utility.yul\":6446:6509   */\n      tag_201\n        /* \"#utility.yul\":6503:6507   */\n      0x00\n        /* \"#utility.yul\":6498:6501   */\n      dup7\n        /* \"#utility.yul\":6494:6508   */\n      add\n        /* \"#utility.yul\":6480:6492   */\n      dup3\n        /* \"#utility.yul\":6446:6509   */\n      tag_92\n      jump\t// in\n    tag_201:\n        /* \"#utility.yul\":6357:6519   */\n      pop\n        /* \"#utility.yul\":6604:6608   */\n      0x20\n        /* \"#utility.yul\":6597:6602   */\n      dup4\n        /* \"#utility.yul\":6593:6609   */\n      add\n        /* \"#utility.yul\":6587:6610   */\n      mload\n        /* \"#utility.yul\":6657:6660   */\n      dup5\n        /* \"#utility.yul\":6651:6655   */\n      dup3\n        /* \"#utility.yul\":6647:6661   */\n      sub\n        /* \"#utility.yul\":6640:6644   */\n      0x20\n        /* \"#utility.yul\":6635:6638   */\n      dup7\n        /* \"#utility.yul\":6631:6645   */\n      add\n        /* \"#utility.yul\":6624:6662   */\n      mstore\n        /* \"#utility.yul\":6683:6756   */\n      tag_202\n        /* \"#utility.yul\":6751:6755   */\n      dup3\n        /* \"#utility.yul\":6737:6749   */\n      dup3\n        /* \"#utility.yul\":6683:6756   */\n      tag_96\n      jump\t// in\n    tag_202:\n        /* \"#utility.yul\":6675:6756   */\n      swap2\n      pop\n        /* \"#utility.yul\":6529:6767   */\n      pop\n        /* \"#utility.yul\":6851:6855   */\n      0x40\n        /* \"#utility.yul\":6844:6849   */\n      dup4\n        /* \"#utility.yul\":6840:6856   */\n      add\n        /* \"#utility.yul\":6834:6857   */\n      mload\n        /* \"#utility.yul\":6870:6939   */\n      tag_203\n        /* \"#utility.yul\":6933:6937   */\n      0x40\n        /* \"#utility.yul\":6928:6931   */\n      dup7\n        /* \"#utility.yul\":6924:6938   */\n      add\n        /* \"#utility.yul\":6910:6922   */\n      dup3\n        /* \"#utility.yul\":6870:6939   */\n      tag_100\n      jump\t// in\n    tag_203:\n        /* \"#utility.yul\":6777:6949   */\n      pop\n        /* \"#utility.yul\":6966:6970   */\n      dup1\n        /* \"#utility.yul\":6959:6970   */\n      swap2\n      pop\n        /* \"#utility.yul\":6311:6976   */\n      pop\n        /* \"#utility.yul\":6197:6976   */\n      swap3\n      swap2\n      pop\n      pop\n      jump\t// out\n        /* \"#utility.yul\":6982:7335   */\n    tag_19:\n        /* \"#utility.yul\":7115:7119   */\n      0x00\n        /* \"#utility.yul\":7153:7155   */\n      0x20\n        /* \"#utility.yul\":7142:7151   */\n      dup3\n        /* \"#utility.yul\":7138:7156   */\n      add\n        /* \"#utility.yul\":7130:7156   */\n      swap1\n      pop\n        /* \"#utility.yul\":7202:7211   */\n      dup2\n        /* \"#utility.yul\":7196:7200   */\n      dup2\n        /* \"#utility.yul\":7192:7212   */\n      sub\n        /* \"#utility.yul\":7188:7189   */\n      0x00\n        /* \"#utility.yul\":7177:7186   */\n      dup4\n        /* \"#utility.yul\":7173:7190   */\n      add\n        /* \"#utility.yul\":7166:7213   */\n      mstore\n        /* \"#utility.yul\":7230:7328   */\n      tag_205\n        /* \"#utility.yul\":7323:7327   */\n      dup2\n        /* \"#utility.yul\":7314:7320   */\n      dup5\n        /* \"#utility.yul\":7230:7328   */\n      tag_101\n      jump\t// in\n    tag_205:\n        /* \"#utility.yul\":7222:7328   */\n      swap1\n      pop\n        /* \"#utility.yul\":6982:7335   */\n      swap3\n      swap2\n      pop\n      pop\n      jump\t// out\n        /* \"#utility.yul\":7341:7510   */\n    tag_102:\n        /* \"#utility.yul\":7425:7436   */\n      0x00\n        /* \"#utility.yul\":7459:7465   */\n      dup3\n        /* \"#utility.yul\":7454:7457   */\n      dup3\n        /* \"#utility.yul\":7447:7466   */\n      mstore\n        /* \"#utility.yul\":7499:7503   */\n      0x20\n        /* \"#utility.yul\":7494:7497   */\n      dup3\n        /* \"#utility.yul\":7490:7504   */\n      add\n        /* \"#utility.yul\":7475:7504   */\n      swap1\n      pop\n        /* \"#utility.yul\":7341:7510   */\n      swap3\n      swap2\n      pop\n      pop\n      jump\t// out\n        /* \"#utility.yul\":7516:7736   */\n    tag_103:\n        /* \"#utility.yul\":7656:7690   */\n      0x44617461537472756374757265733a20546f646f204944206e6f7420666f756e\n        /* \"#utility.yul\":7652:7653   */\n      0x00\n        /* \"#utility.yul\":7644:7650   */\n      dup3\n        /* \"#utility.yul\":7640:7654   */\n      add\n        /* \"#utility.yul\":7633:7691   */\n      mstore\n        /* \"#utility.yul\":7725:7728   */\n      0x6400000000000000000000000000000000000000000000000000000000000000\n        /* \"#utility.yul\":7720:7722   */\n      0x20\n        /* \"#utility.yul\":7712:7718   */\n      dup3\n        /* \"#utility.yul\":7708:7723   */\n      add\n        /* \"#utility.yul\":7701:7729   */\n      mstore\n        /* \"#utility.yul\":7516:7736   */\n      pop\n      jump\t// out\n        /* \"#utility.yul\":7742:8108   */\n    tag_104:\n        /* \"#utility.yul\":7884:7887   */\n      0x00\n        /* \"#utility.yul\":7905:7972   */\n      tag_209\n        /* \"#utility.yul\":7969:7971   */\n      0x21\n        /* \"#utility.yul\":7964:7967   */\n      dup4\n        /* \"#utility.yul\":7905:7972   */\n      tag_102\n      jump\t// in\n    tag_209:\n        /* \"#utility.yul\":7898:7972   */\n      swap2\n      pop\n        /* \"#utility.yul\":7981:8074   */\n      tag_210\n        /* \"#utility.yul\":8070:8073   */\n      dup3\n        /* \"#utility.yul\":7981:8074   */\n      tag_103\n      jump\t// in\n    tag_210:\n        /* \"#utility.yul\":8099:8101   */\n      0x40\n        /* \"#utility.yul\":8094:8097   */\n      dup3\n        /* \"#utility.yul\":8090:8102   */\n      add\n        /* \"#utility.yul\":8083:8102   */\n      swap1\n      pop\n        /* \"#utility.yul\":7742:8108   */\n      swap2\n      swap1\n      pop\n      jump\t// out\n        /* \"#utility.yul\":8114:8533   */\n    tag_24:\n        /* \"#utility.yul\":8280:8284   */\n      0x00\n        /* \"#utility.yul\":8318:8320   */\n      0x20\n        /* \"#utility.yul\":8307:8316   */\n      dup3\n        /* \"#utility.yul\":8303:8321   */\n      add\n        /* \"#utility.yul\":8295:8321   */\n      swap1\n      pop\n        /* \"#utility.yul\":8367:8376   */\n      dup2\n        /* \"#utility.yul\":8361:8365   */\n      dup2\n        /* \"#utility.yul\":8357:8377   */\n      sub\n        /* \"#utility.yul\":8353:8354   */\n      0x00\n        /* \"#utility.yul\":8342:8351   */\n      dup4\n        /* \"#utility.yul\":8338:8355   */\n      add\n        /* \"#utility.yul\":8331:8378   */\n      mstore\n        /* \"#utility.yul\":8395:8526   */\n      tag_212\n        /* \"#utility.yul\":8521:8525   */\n      dup2\n        /* \"#utility.yul\":8395:8526   */\n      tag_104\n      jump\t// in\n    tag_212:\n        /* \"#utility.yul\":8387:8526   */\n      swap1\n      pop\n        /* \"#utility.yul\":8114:8533   */\n      swap2\n      swap1\n      pop\n      jump\t// out\n        /* \"#utility.yul\":8539:8719   */\n    tag_105:\n        /* \"#utility.yul\":8587:8664   */\n      0x4e487b7100000000000000000000000000000000000000000000000000000000\n        /* \"#utility.yul\":8584:8585   */\n      0x00\n        /* \"#utility.yul\":8577:8665   */\n      mstore\n        /* \"#utility.yul\":8684:8688   */\n      0x22\n        /* \"#utility.yul\":8681:8682   */\n      0x04\n        /* \"#utility.yul\":8674:8689   */\n      mstore\n        /* \"#utility.yul\":8708:8712   */\n      0x24\n        /* \"#utility.yul\":8705:8706   */\n      0x00\n        /* \"#utility.yul\":8698:8713   */\n      revert\n        /* \"#utility.yul\":8725:9045   */\n    tag_27:\n        /* \"#utility.yul\":8769:8775   */\n      0x00\n        /* \"#utility.yul\":8806:8807   */\n      0x02\n        /* \"#utility.yul\":8800:8804   */\n      dup3\n        /* \"#utility.yul\":8796:8808   */\n      div\n        /* \"#utility.yul\":8786:8808   */\n      swap1\n      pop\n        /* \"#utility.yul\":8853:8854   */\n      0x01\n        /* \"#utility.yul\":8847:8851   */\n      dup3\n        /* \"#utility.yul\":8843:8855   */\n      and\n        /* \"#utility.yul\":8874:8892   */\n      dup1\n        /* \"#utility.yul\":8864:8945   */\n      tag_215\n      jumpi\n        /* \"#utility.yul\":8930:8934   */\n      0x7f\n        /* \"#utility.yul\":8922:8928   */\n      dup3\n        /* \"#utility.yul\":8918:8935   */\n      and\n        /* \"#utility.yul\":8908:8935   */\n      swap2\n      pop\n        /* \"#utility.yul\":8864:8945   */\n    tag_215:\n        /* \"#utility.yul\":8992:8994   */\n      0x20\n        /* \"#utility.yul\":8984:8990   */\n      dup3\n        /* \"#utility.yul\":8981:8995   */\n      lt\n        /* \"#utility.yul\":8961:8979   */\n      dup2\n        /* \"#utility.yul\":8958:8996   */\n      sub\n        /* \"#utility.yul\":8955:9039   */\n      tag_216\n      jumpi\n        /* \"#utility.yul\":9011:9029   */\n      tag_217\n      tag_105\n      jump\t// in\n    tag_217:\n        /* \"#utility.yul\":8955:9039   */\n    tag_216:\n        /* \"#utility.yul\":8776:9045   */\n      pop\n        /* \"#utility.yul\":8725:9045   */\n      swap2\n      swap1\n      pop\n      jump\t// out\n        /* \"#utility.yul\":9051:9192   */\n    tag_106:\n        /* \"#utility.yul\":9100:9104   */\n      0x00\n        /* \"#utility.yul\":9123:9126   */\n      dup2\n        /* \"#utility.yul\":9115:9126   */\n      swap1\n      pop\n        /* \"#utility.yul\":9146:9149   */\n      dup2\n        /* \"#utility.yul\":9143:9144   */\n      0x00\n        /* \"#utility.yul\":9136:9150   */\n      mstore\n        /* \"#utility.yul\":9180:9184   */\n      0x20\n        /* \"#utility.yul\":9177:9178   */\n      0x00\n        /* \"#utility.yul\":9167:9185   */\n      keccak256\n        /* \"#utility.yul\":9159:9185   */\n      swap1\n      pop\n        /* \"#utility.yul\":9051:9192   */\n      swap2\n      swap1\n      pop\n      jump\t// out\n        /* \"#utility.yul\":9198:9291   */\n    tag_107:\n        /* \"#utility.yul\":9235:9241   */\n      0x00\n        /* \"#utility.yul\":9282:9284   */\n      0x20\n        /* \"#utility.yul\":9277:9279   */\n      0x1f\n        /* \"#utility.yul\":9270:9275   */\n      dup4\n        /* \"#utility.yul\":9266:9280   */\n      add\n        /* \"#utility.yul\":9262:9285   */\n      div\n        /* \"#utility.yul\":9252:9285   */\n      swap1\n      pop\n        /* \"#utility.yul\":9198:9291   */\n      swap2\n      swap1\n      pop\n      jump\t// out\n        /* \"#utility.yul\":9297:9404   */\n    tag_108:\n        /* \"#utility.yul\":9341:9349   */\n      0x00\n        /* \"#utility.yul\":9391:9396   */\n      dup3\n        /* \"#utility.yul\":9385:9389   */\n      dup3\n        /* \"#utility.yul\":9381:9397   */\n      shl\n        /* \"#utility.yul\":9360:9397   */\n      swap1\n      pop\n        /* \"#utility.yul\":9297:9404   */\n      swap3\n      swap2\n      pop\n      pop\n      jump\t// out\n        /* \"#utility.yul\":9410:9803   */\n    tag_109:\n        /* \"#utility.yul\":9479:9485   */\n      0x00\n        /* \"#utility.yul\":9529:9530   */\n      0x08\n        /* \"#utility.yul\":9517:9527   */\n      dup4\n        /* \"#utility.yul\":9513:9531   */\n      mul\n        /* \"#utility.yul\":9552:9649   */\n      tag_222\n        /* \"#utility.yul\":9582:9648   */\n      0xffffffffffffffffffffffffffffffffffffffffffffffffffffffffffffffff\n        /* \"#utility.yul\":9571:9580   */\n      dup3\n        /* \"#utility.yul\":9552:9649   */\n      tag_108\n      jump\t// in\n    tag_222:\n        /* \"#utility.yul\":9670:9709   */\n      tag_223\n        /* \"#utility.yul\":9700:9708   */\n      dup7\n        /* \"#utility.yul\":9689:9698   */\n      dup4\n        /* \"#utility.yul\":9670:9709   */\n      tag_108\n      jump\t// in\n    tag_223:\n        /* \"#utility.yul\":9658:9709   */\n      swap6\n      pop\n        /* \"#utility.yul\":9742:9746   */\n      dup1\n        /* \"#utility.yul\":9738:9747   */\n      not\n        /* \"#utility.yul\":9731:9736   */\n      dup5\n        /* \"#utility.yul\":9727:9748   */\n      and\n        /* \"#utility.yul\":9718:9748   */\n      swap4\n      pop\n        /* \"#utility.yul\":9791:9795   */\n      dup1\n        /* \"#utility.yul\":9781:9789   */\n      dup7\n        /* \"#utility.yul\":9777:9796   */\n      and\n        /* \"#utility.yul\":9770:9775   */\n      dup5\n        /* \"#utility.yul\":9767:9797   */\n      or\n        /* \"#utility.yul\":9757:9797   */\n      swap3\n      pop\n        /* \"#utility.yul\":9486:9803   */\n      pop\n      pop\n        /* \"#utility.yul\":9410:9803   */\n      swap4\n      swap3\n      pop\n      pop\n      pop\n      jump\t// out\n        /* \"#utility.yul\":9809:9869   */\n    tag_110:\n        /* \"#utility.yul\":9837:9840   */\n      0x00\n        /* \"#utility.yul\":9858:9863   */\n      dup2\n        /* \"#utility.yul\":9851:9863   */\n      swap1\n      pop\n        /* \"#utility.yul\":9809:9869   */\n      swap2\n      swap1\n      pop\n      jump\t// out\n        /* \"#utility.yul\":9875:10017   */\n    tag_111:\n        /* \"#utility.yul\":9925:9934   */\n      0x00\n        /* \"#utility.yul\":9958:10011   */\n      tag_226\n        /* \"#utility.yul\":9976:10010   */\n      tag_227\n        /* \"#utility.yul\":9985:10009   */\n      tag_228\n        /* \"#utility.yul\":10003:10008   */\n      dup5\n        /* \"#utility.yul\":9985:10009   */\n      tag_77\n      jump\t// in\n    tag_228:\n        /* \"#utility.yul\":9976:10010   */\n      tag_110\n      jump\t// in\n    tag_227:\n        /* \"#utility.yul\":9958:10011   */\n      tag_77\n      jump\t// in\n    tag_226:\n        /* \"#utility.yul\":9945:10011   */\n      swap1\n      pop\n        /* \"#utility.yul\":9875:10017   */\n      swap2\n      swap1\n      pop\n      jump\t// out\n        /* \"#utility.yul\":10023:10098   */\n    tag_112:\n        /* \"#utility.yul\":10066:10069   */\n      0x00\n        /* \"#utility.yul\":10087:10092   */\n      dup2\n        /* \"#utility.yul\":10080:10092   */\n      swap1\n      pop\n        /* \"#utility.yul\":10023:10098   */\n      swap2\n      swap1\n      pop\n      jump\t// out\n        /* \"#utility.yul\":10104:10373   */\n    tag_113:\n        /* \"#utility.yul\":10214:10253   */\n      tag_231\n        /* \"#utility.yul\":10245:10252   */\n      dup4\n        /* \"#utility.yul\":10214:10253   */\n      tag_111\n      jump\t// in\n    tag_231:\n        /* \"#utility.yul\":10275:10366   */\n      tag_232\n        /* \"#utility.yul\":10324:10365   */\n      tag_233\n        /* \"#utility.yul\":10348:10364   */\n      dup3\n        /* \"#utility.yul\":10324:10365   */\n      tag_112\n      jump\t// in\n    tag_233:\n        /* \"#utility.yul\":10316:10322   */\n      dup5\n        /* \"#utility.yul\":10309:10313   */\n      dup5\n        /* \"#utility.yul\":10303:10314   */\n      sload\n        /* \"#utility.yul\":10275:10366   */\n      tag_109\n      jump\t// in\n    tag_232:\n        /* \"#utility.yul\":10269:10273   */\n      dup3\n        /* \"#utility.yul\":10262:10367   */\n      sstore\n        /* \"#utility.yul\":10180:10373   */\n      pop\n        /* \"#utility.yul\":10104:10373   */\n      pop\n      pop\n      pop\n      jump\t// out\n        /* \"#utility.yul\":10379:10452   */\n    tag_114:\n        /* \"#utility.yul\":10424:10427   */\n      0x00\n        /* \"#utility.yul\":10379:10452   */\n      swap1\n      jump\t// out\n        /* \"#utility.yul\":10458:10647   */\n    tag_115:\n        /* \"#utility.yul\":10535:10567   */\n      tag_236\n      tag_114\n      jump\t// in\n    tag_236:\n        /* \"#utility.yul\":10576:10641   */\n      tag_237\n        /* \"#utility.yul\":10634:10640   */\n      dup2\n        /* \"#utility.yul\":10626:10632   */\n      dup5\n        /* \"#utility.yul\":10620:10624   */\n      dup5\n        /* \"#utility.yul\":10576:10641   */\n      tag_113\n      jump\t// in\n    tag_237:\n        /* \"#utility.yul\":10511:10647   */\n      pop\n        /* \"#utility.yul\":10458:10647   */\n      pop\n      pop\n      jump\t// out\n        /* \"#utility.yul\":10653:10839   */\n    tag_116:\n        /* \"#utility.yul\":10713:10833   */\n    tag_239:\n        /* \"#utility.yul\":10730:10733   */\n      dup2\n        /* \"#utility.yul\":10723:10728   */\n      dup2\n        /* \"#utility.yul\":10720:10734   */\n      lt\n        /* \"#utility.yul\":10713:10833   */\n      iszero\n      tag_241\n      jumpi\n        /* \"#utility.yul\":10784:10823   */\n      tag_242\n        /* \"#utility.yul\":10821:10822   */\n      0x00\n        /* \"#utility.yul\":10814:10819   */\n      dup3\n        /* \"#utility.yul\":10784:10823   */\n      tag_115\n      jump\t// in\n    tag_242:\n        /* \"#utility.yul\":10757:10758   */\n      0x01\n        /* \"#utility.yul\":10750:10755   */\n      dup2\n        /* \"#utility.yul\":10746:10759   */\n      add\n        /* \"#utility.yul\":10737:10759   */\n      swap1\n      pop\n        /* \"#utility.yul\":10713:10833   */\n      jump(tag_239)\n    tag_241:\n        /* \"#utility.yul\":10653:10839   */\n      pop\n      pop\n      jump\t// out\n        /* \"#utility.yul\":10845:11388   */\n    tag_117:\n        /* \"#utility.yul\":10946:10948   */\n      0x1f\n        /* \"#utility.yul\":10941:10944   */\n      dup3\n        /* \"#utility.yul\":10938:10949   */\n      gt\n        /* \"#utility.yul\":10935:11381   */\n      iszero\n      tag_244\n      jumpi\n        /* \"#utility.yul\":10980:11018   */\n      tag_245\n        /* \"#utility.yul\":11012:11017   */\n      dup2\n        /* \"#utility.yul\":10980:11018   */\n      tag_106\n      jump\t// in\n    tag_245:\n        /* \"#utility.yul\":11064:11093   */\n      tag_246\n        /* \"#utility.yul\":11082:11092   */\n      dup5\n        /* \"#utility.yul\":11064:11093   */\n      tag_107\n      jump\t// in\n    tag_246:\n        /* \"#utility.yul\":11054:11062   */\n      dup2\n        /* \"#utility.yul\":11050:11094   */\n      add\n        /* \"#utility.yul\":11247:11249   */\n      0x20\n        /* \"#utility.yul\":11235:11245   */\n      dup6\n        /* \"#utility.yul\":11232:11250   */\n      lt\n        /* \"#utility.yul\":11229:11278   */\n      iszero\n      tag_247\n      jumpi\n        /* \"#utility.yul\":11268:11276   */\n      dup2\n        /* \"#utility.yul\":11253:11276   */\n      swap1\n      pop\n        /* \"#utility.yul\":11229:11278   */\n    tag_247:\n        /* \"#utility.yul\":11291:11371   */\n      tag_248\n        /* \"#utility.yul\":11347:11369   */\n      tag_249\n        /* \"#utility.yul\":11365:11368   */\n      dup6\n        /* \"#utility.yul\":11347:11369   */\n      tag_107\n      jump\t// in\n    tag_249:\n        /* \"#utility.yul\":11337:11345   */\n      dup4\n        /* \"#utility.yul\":11333:11370   */\n      add\n        /* \"#utility.yul\":11320:11331   */\n      dup3\n        /* \"#utility.yul\":11291:11371   */\n      tag_116\n      jump\t// in\n    tag_248:\n        /* \"#utility.yul\":10950:11381   */\n      pop\n      pop\n        /* \"#utility.yul\":10935:11381   */\n    tag_244:\n        /* \"#utility.yul\":10845:11388   */\n      pop\n      pop\n      pop\n      jump\t// out\n        /* \"#utility.yul\":11394:11511   */\n    tag_118:\n        /* \"#utility.yul\":11448:11456   */\n      0x00\n        /* \"#utility.yul\":11498:11503   */\n      dup3\n        /* \"#utility.yul\":11492:11496   */\n      dup3\n        /* \"#utility.yul\":11488:11504   */\n      shr\n        /* \"#utility.yul\":11467:11504   */\n      swap1\n      pop\n        /* \"#utility.yul\":11394:11511   */\n      swap3\n      swap2\n      pop\n      pop\n      jump\t// out\n        /* \"#utility.yul\":11517:11686   */\n    tag_119:\n        /* \"#utility.yul\":11561:11567   */\n      0x00\n        /* \"#utility.yul\":11594:11645   */\n      tag_252\n        /* \"#utility.yul\":11642:11643   */\n      0x00\n        /* \"#utility.yul\":11638:11644   */\n      not\n        /* \"#utility.yul\":11630:11635   */\n      dup5\n        /* \"#utility.yul\":11627:11628   */\n      0x08\n        /* \"#utility.yul\":11623:11636   */\n      mul\n        /* \"#utility.yul\":11594:11645   */\n      tag_118\n      jump\t// in\n    tag_252:\n        /* \"#utility.yul\":11590:11646   */\n      not\n        /* \"#utility.yul\":11675:11679   */\n      dup1\n        /* \"#utility.yul\":11669:11673   */\n      dup4\n        /* \"#utility.yul\":11665:11680   */\n      and\n        /* \"#utility.yul\":11655:11680   */\n      swap2\n      pop\n        /* \"#utility.yul\":11568:11686   */\n      pop\n        /* \"#utility.yul\":11517:11686   */\n      swap3\n      swap2\n      pop\n      pop\n      jump\t// out\n        /* \"#utility.yul\":11691:11986   */\n    tag_120:\n        /* \"#utility.yul\":11767:11771   */\n      0x00\n        /* \"#utility.yul\":11913:11942   */\n      tag_254\n        /* \"#utility.yul\":11938:11941   */\n      dup4\n        /* \"#utility.yul\":11932:11936   */\n      dup4\n        /* \"#utility.yul\":11913:11942   */\n      tag_119\n      jump\t// in\n    tag_254:\n        /* \"#utility.yul\":11905:11942   */\n      swap2\n      pop\n        /* \"#utility.yul\":11975:11978   */\n      dup3\n        /* \"#utility.yul\":11972:11973   */\n      0x02\n        /* \"#utility.yul\":11968:11979   */\n      mul\n        /* \"#utility.yul\":11962:11966   */\n      dup3\n        /* \"#utility.yul\":11959:11980   */\n      or\n        /* \"#utility.yul\":11951:11980   */\n      swap1\n      pop\n        /* \"#utility.yul\":11691:11986   */\n      swap3\n      swap2\n      pop\n      pop\n      jump\t// out\n        /* \"#utility.yul\":11991:13386   */\n    tag_42:\n        /* \"#utility.yul\":12108:12145   */\n      tag_256\n        /* \"#utility.yul\":12141:12144   */\n      dup3\n        /* \"#utility.yul\":12108:12145   */\n      tag_93\n      jump\t// in\n    tag_256:\n        /* \"#utility.yul\":12210:12228   */\n      0xffffffffffffffff\n        /* \"#utility.yul\":12202:12208   */\n      dup2\n        /* \"#utility.yul\":12199:12229   */\n      gt\n        /* \"#utility.yul\":12196:12252   */\n      iszero\n      tag_257\n      jumpi\n        /* \"#utility.yul\":12232:12250   */\n      tag_258\n      tag_85\n      jump\t// in\n    tag_258:\n        /* \"#utility.yul\":12196:12252   */\n    tag_257:\n        /* \"#utility.yul\":12276:12314   */\n      tag_259\n        /* \"#utility.yul\":12308:12312   */\n      dup3\n        /* \"#utility.yul\":12302:12313   */\n      sload\n        /* \"#utility.yul\":12276:12314   */\n      tag_27\n      jump\t// in\n    tag_259:\n        /* \"#utility.yul\":12361:12428   */\n      tag_260\n        /* \"#utility.yul\":12421:12427   */\n      dup3\n        /* \"#utility.yul\":12413:12419   */\n      dup3\n        /* \"#utility.yul\":12407:12411   */\n      dup6\n        /* \"#utility.yul\":12361:12428   */\n      tag_117\n      jump\t// in\n    tag_260:\n        /* \"#utility.yul\":12455:12456   */\n      0x00\n        /* \"#utility.yul\":12479:12483   */\n      0x20\n        /* \"#utility.yul\":12466:12483   */\n      swap1\n      pop\n        /* \"#utility.yul\":12511:12513   */\n      0x1f\n        /* \"#utility.yul\":12503:12509   */\n      dup4\n        /* \"#utility.yul\":12500:12514   */\n      gt\n        /* \"#utility.yul\":12528:12529   */\n      0x01\n        /* \"#utility.yul\":12523:13141   */\n      dup2\n      eq\n      tag_262\n      jumpi\n        /* \"#utility.yul\":13185:13186   */\n      0x00\n        /* \"#utility.yul\":13202:13208   */\n      dup5\n        /* \"#utility.yul\":13199:13276   */\n      iszero\n      tag_263\n      jumpi\n        /* \"#utility.yul\":13251:13260   */\n      dup3\n        /* \"#utility.yul\":13246:13249   */\n      dup8\n        /* \"#utility.yul\":13242:13261   */\n      add\n        /* \"#utility.yul\":13236:13262   */\n      mload\n        /* \"#utility.yul\":13227:13262   */\n      swap1\n      pop\n        /* \"#utility.yul\":13199:13276   */\n    tag_263:\n        /* \"#utility.yul\":13302:13369   */\n      tag_264\n        /* \"#utility.yul\":13362:13368   */\n      dup6\n        /* \"#utility.yul\":13355:13360   */\n      dup3\n        /* \"#utility.yul\":13302:13369   */\n      tag_120\n      jump\t// in\n    tag_264:\n        /* \"#utility.yul\":13296:13300   */\n      dup7\n        /* \"#utility.yul\":13289:13370   */\n      sstore\n        /* \"#utility.yul\":13158:13380   */\n      pop\n        /* \"#utility.yul\":12493:13380   */\n      jump(tag_261)\n        /* \"#utility.yul\":12523:13141   */\n    tag_262:\n        /* \"#utility.yul\":12575:12579   */\n      0x1f\n        /* \"#utility.yul\":12571:12580   */\n      not\n        /* \"#utility.yul\":12563:12569   */\n      dup5\n        /* \"#utility.yul\":12559:12581   */\n      and\n        /* \"#utility.yul\":12609:12646   */\n      tag_265\n        /* \"#utility.yul\":12641:12645   */\n      dup7\n        /* \"#utility.yul\":12609:12646   */\n      tag_106\n      jump\t// in\n    tag_265:\n        /* \"#utility.yul\":12668:12669   */\n      0x00\n        /* \"#utility.yul\":12682:12890   */\n    tag_266:\n        /* \"#utility.yul\":12696:12703   */\n      dup3\n        /* \"#utility.yul\":12693:12694   */\n      dup2\n        /* \"#utility.yul\":12690:12704   */\n      lt\n        /* \"#utility.yul\":12682:12890   */\n      iszero\n      tag_268\n      jumpi\n        /* \"#utility.yul\":12775:12784   */\n      dup5\n        /* \"#utility.yul\":12770:12773   */\n      dup10\n        /* \"#utility.yul\":12766:12785   */\n      add\n        /* \"#utility.yul\":12760:12786   */\n      mload\n        /* \"#utility.yul\":12752:12758   */\n      dup3\n        /* \"#utility.yul\":12745:12787   */\n      sstore\n        /* \"#utility.yul\":12826:12827   */\n      0x01\n        /* \"#utility.yul\":12818:12824   */\n      dup3\n        /* \"#utility.yul\":12814:12828   */\n      add\n        /* \"#utility.yul\":12804:12828   */\n      swap2\n      pop\n        /* \"#utility.yul\":12873:12875   */\n      0x20\n        /* \"#utility.yul\":12862:12871   */\n      dup6\n        /* \"#utility.yul\":12858:12876   */\n      add\n        /* \"#utility.yul\":12845:12876   */\n      swap5\n      pop\n        /* \"#utility.yul\":12719:12723   */\n      0x20\n        /* \"#utility.yul\":12716:12717   */\n      dup2\n        /* \"#utility.yul\":12712:12724   */\n      add\n        /* \"#utility.yul\":12707:12724   */\n      swap1\n      pop\n        /* \"#utility.yul\":12682:12890   */\n      jump(tag_266)\n    tag_268:\n        /* \"#utility.yul\":12918:12924   */\n      dup7\n        /* \"#utility.yul\":12909:12916   */\n      dup4\n        /* \"#utility.yul\":12906:12925   */\n      lt\n        /* \"#utility.yul\":12903:13082   */\n      iszero\n      tag_269\n      jumpi\n        /* \"#utility.yul\":12976:12985   */\n      dup5\n        /* \"#utility.yul\":12971:12974   */\n      dup10\n        /* \"#utility.yul\":12967:12986   */\n      add\n        /* \"#utility.yul\":12961:12987   */\n      mload\n        /* \"#utility.yul\":13019:13067   */\n      tag_270\n        /* \"#utility.yul\":13061:13065   */\n      0x1f\n        /* \"#utility.yul\":13053:13059   */\n      dup10\n        /* \"#utility.yul\":13049:13066   */\n      and\n        /* \"#utility.yul\":13038:13047   */\n      dup3\n        /* \"#utility.yul\":13019:13067   */\n      tag_119\n      jump\t// in\n    tag_270:\n        /* \"#utility.yul\":13011:13017   */\n      dup4\n        /* \"#utility.yul\":13004:13068   */\n      sstore\n        /* \"#utility.yul\":12926:13082   */\n      pop\n        /* \"#utility.yul\":12903:13082   */\n    tag_269:\n        /* \"#utility.yul\":13128:13129   */\n      0x01\n        /* \"#utility.yul\":13124:13125   */\n      0x02\n        /* \"#utility.yul\":13116:13122   */\n      dup9\n        /* \"#utility.yul\":13112:13126   */\n      mul\n        /* \"#utility.yul\":13108:13130   */\n      add\n        /* \"#utility.yul\":13102:13106   */\n      dup9\n        /* \"#utility.yul\":13095:13131   */\n      sstore\n        /* \"#utility.yul\":12530:13141   */\n      pop\n      pop\n      pop\n        /* \"#utility.yul\":12493:13380   */\n    tag_261:\n      pop\n        /* \"#utility.yul\":12083:13386   */\n      pop\n      pop\n      pop\n        /* \"#utility.yul\":11991:13386   */\n      pop\n      pop\n      jump\t// out\n        /* \"#utility.yul\":13392:13572   */\n    tag_121:\n        /* \"#utility.yul\":13440:13517   */\n      0x4e487b7100000000000000000000000000000000000000000000000000000000\n        /* \"#utility.yul\":13437:13438   */\n      0x00\n        /* \"#utility.yul\":13430:13518   */\n      mstore\n        /* \"#utility.yul\":13537:13541   */\n      0x11\n        /* \"#utility.yul\":13534:13535   */\n      0x04\n        /* \"#utility.yul\":13527:13542   */\n      mstore\n        /* \"#utility.yul\":13561:13565   */\n      0x24\n        /* \"#utility.yul\":13558:13559   */\n      0x00\n        /* \"#utility.yul\":13551:13566   */\n      revert\n        /* \"#utility.yul\":13578:13769   */\n    tag_47:\n        /* \"#utility.yul\":13618:13621   */\n      0x00\n        /* \"#utility.yul\":13637:13657   */\n      tag_273\n        /* \"#utility.yul\":13655:13656   */\n      dup3\n        /* \"#utility.yul\":13637:13657   */\n      tag_77\n      jump\t// in\n    tag_273:\n        /* \"#utility.yul\":13632:13657   */\n      swap2\n      pop\n        /* \"#utility.yul\":13671:13691   */\n      tag_274\n        /* \"#utility.yul\":13689:13690   */\n      dup4\n        /* \"#utility.yul\":13671:13691   */\n      tag_77\n      jump\t// in\n    tag_274:\n        /* \"#utility.yul\":13666:13691   */\n      swap3\n      pop\n        /* \"#utility.yul\":13714:13715   */\n      dup3\n        /* \"#utility.yul\":13711:13712   */\n      dup3\n        /* \"#utility.yul\":13707:13716   */\n      add\n        /* \"#utility.yul\":13700:13716   */\n      swap1\n      pop\n        /* \"#utility.yul\":13735:13738   */\n      dup1\n        /* \"#utility.yul\":13732:13733   */\n      dup3\n        /* \"#utility.yul\":13729:13739   */\n      gt\n        /* \"#utility.yul\":13726:13762   */\n      iszero\n      tag_275\n      jumpi\n        /* \"#utility.yul\":13742:13760   */\n      tag_276\n      tag_121\n      jump\t// in\n    tag_276:\n        /* \"#utility.yul\":13726:13762   */\n    tag_275:\n        /* \"#utility.yul\":13578:13769   */\n      swap3\n      swap2\n      pop\n      pop\n      jump\t// out\n        /* \"#utility.yul\":13775:13893   */\n    tag_122:\n        /* \"#utility.yul\":13862:13886   */\n      tag_278\n        /* \"#utility.yul\":13880:13885   */\n      dup2\n        /* \"#utility.yul\":13862:13886   */\n      tag_77\n      jump\t// in\n    tag_278:\n        /* \"#utility.yul\":13857:13860   */\n      dup3\n        /* \"#utility.yul\":13850:13887   */\n      mstore\n        /* \"#utility.yul\":13775:13893   */\n      pop\n      pop\n      jump\t// out\n        /* \"#utility.yul\":13899:14068   */\n    tag_123:\n        /* \"#utility.yul\":14039:14060   */\n      0x4e657720746f646f206974656d20616464656400000000000000000000000000\n        /* \"#utility.yul\":14035:14036   */\n      0x00\n        /* \"#utility.yul\":14027:14033   */\n      dup3\n        /* \"#utility.yul\":14023:14037   */\n      add\n        /* \"#utility.yul\":14016:14061   */\n      mstore\n        /* \"#utility.yul\":13899:14068   */\n      pop\n      jump\t// out\n        /* \"#utility.yul\":14074:14440   */\n    tag_124:\n        /* \"#utility.yul\":14216:14219   */\n      0x00\n        /* \"#utility.yul\":14237:14304   */\n      tag_281\n        /* \"#utility.yul\":14301:14303   */\n      0x13\n        /* \"#utility.yul\":14296:14299   */\n      dup4\n        /* \"#utility.yul\":14237:14304   */\n      tag_102\n      jump\t// in\n    tag_281:\n        /* \"#utility.yul\":14230:14304   */\n      swap2\n      pop\n        /* \"#utility.yul\":14313:14406   */\n      tag_282\n        /* \"#utility.yul\":14402:14405   */\n      dup3\n        /* \"#utility.yul\":14313:14406   */\n      tag_123\n      jump\t// in\n    tag_282:\n        /* \"#utility.yul\":14431:14433   */\n      0x20\n        /* \"#utility.yul\":14426:14429   */\n      dup3\n        /* \"#utility.yul\":14422:14434   */\n      add\n        /* \"#utility.yul\":14415:14434   */\n      swap1\n      pop\n        /* \"#utility.yul\":14074:14440   */\n      swap2\n      swap1\n      pop\n      jump\t// out\n        /* \"#utility.yul\":14446:14975   */\n    tag_55:\n        /* \"#utility.yul\":14640:14644   */\n      0x00\n        /* \"#utility.yul\":14678:14680   */\n      0x40\n        /* \"#utility.yul\":14667:14676   */\n      dup3\n        /* \"#utility.yul\":14663:14681   */\n      add\n        /* \"#utility.yul\":14655:14681   */\n      swap1\n      pop\n        /* \"#utility.yul\":14691:14762   */\n      tag_284\n        /* \"#utility.yul\":14759:14760   */\n      0x00\n        /* \"#utility.yul\":14748:14757   */\n      dup4\n        /* \"#utility.yul\":14744:14761   */\n      add\n        /* \"#utility.yul\":14735:14741   */\n      dup5\n        /* \"#utility.yul\":14691:14762   */\n      tag_122\n      jump\t// in\n    tag_284:\n        /* \"#utility.yul\":14809:14818   */\n      dup2\n        /* \"#utility.yul\":14803:14807   */\n      dup2\n        /* \"#utility.yul\":14799:14819   */\n      sub\n        /* \"#utility.yul\":14794:14796   */\n      0x20\n        /* \"#utility.yul\":14783:14792   */\n      dup4\n        /* \"#utility.yul\":14779:14797   */\n      add\n        /* \"#utility.yul\":14772:14820   */\n      mstore\n        /* \"#utility.yul\":14837:14968   */\n      tag_285\n        /* \"#utility.yul\":14963:14967   */\n      dup2\n        /* \"#utility.yul\":14837:14968   */\n      tag_124\n      jump\t// in\n    tag_285:\n        /* \"#utility.yul\":14829:14968   */\n      swap1\n      pop\n        /* \"#utility.yul\":14446:14975   */\n      swap3\n      swap2\n      pop\n      pop\n      jump\t// out\n\n    auxdata: 0xa2646970667358221220f9018cbb087595dda5b1fca9328c8a3c98bbf17a448ca0167d6bd959671a648564736f6c634300081a0033\n}\n",
				"bytecode": {
					"linkReferences": {},
					"object": "6080604052348015600e575f80fd5b50610d308061001c5f395ff3fe608060405234801561000f575f80fd5b506004361061003f575f3560e01c80633b6ac5211461004357806395ffebf51461005f578063dd68afb61461007b575b5f80fd5b61005d60048036038101906100589190610573565b6100ab565b005b610079600480360381019061007491906106ed565b610287565b005b61009560048036038101906100909190610734565b610389565b6040516100a2919061088e565b60405180910390f35b815f811180156100c057506001805490508111155b6100ff576040517f08c379a00000000000000000000000000000000000000000000000000000000081526004016100f69061092e565b60405180910390fd5b5f805f8581526020019081526020015f206040518060600160405290815f820154815260200160018201805461013490610979565b80601f016020809104026020016040519081016040528092919081815260200182805461016090610979565b80156101ab5780601f10610182576101008083540402835291602001916101ab565b820191905f5260205f20905b81548152906001019060200180831161018e57829003601f168201915b50505050508152602001600282015f9054906101000a900460ff1660028111156101d8576101d76107ce565b5b60028111156101ea576101e96107ce565b5b8152505090508281604001906002811115610208576102076107ce565b5b9081600281111561021c5761021b6107ce565b5b81525050805f808681526020019081526020015f205f820151815f0155602082015181600101908161024e9190610b46565b506040820151816002015f6101000a81548160ff02191690836002811115610279576102786107ce565b5b021790555090505050505050565b5f600180805490506102999190610c42565b905060405180606001604052808281526020018381526020015f60028111156102c5576102c46107ce565b5b8152505f808381526020019081526020015f205f820151815f015560208201518160010190816102f59190610b46565b506040820151816002015f6101000a81548160ff021916908360028111156103205761031f6107ce565b5b0217905550905050600181908060018154018082558091505060019003905f5260205f20015f90919091909150557f6bc1a4d9dd456584b8d64c1012188014d261efcf8efd8149ad6a3f297717f2778160405161037d9190610cce565b60405180910390a15050565b6103916104db565b815f811180156103a657506001805490508111155b6103e5576040517f08c379a00000000000000000000000000000000000000000000000000000000081526004016103dc9061092e565b60405180910390fd5b5f808481526020019081526020015f206040518060600160405290815f820154815260200160018201805461041990610979565b80601f016020809104026020016040519081016040528092919081815260200182805461044590610979565b80156104905780601f1061046757610100808354040283529160200191610490565b820191905f5260205f20905b81548152906001019060200180831161047357829003601f168201915b50505050508152602001600282015f9054906101000a900460ff1660028111156104bd576104bc6107ce565b5b60028111156104cf576104ce6107ce565b5b81525050915050919050565b60405180606001604052805f8152602001606081526020015f6002811115610506576105056107ce565b5b81525090565b5f604051905090565b5f80fd5b5f80fd5b5f819050919050565b61052f8161051d565b8114610539575f80fd5b50565b5f8135905061054a81610526565b92915050565b6003811061055c575f80fd5b50565b5f8135905061056d81610550565b92915050565b5f806040838503121561058957610588610515565b5b5f6105968582860161053c565b92505060206105a78582860161055f565b9150509250929050565b5f80fd5b5f80fd5b5f601f19601f8301169050919050565b7f4e487b71000000000000000000000000000000000000000000000000000000005f52604160045260245ffd5b6105ff826105b9565b810181811067ffffffffffffffff8211171561061e5761061d6105c9565b5b80604052505050565b5f61063061050c565b905061063c82826105f6565b919050565b5f67ffffffffffffffff82111561065b5761065a6105c9565b5b610664826105b9565b9050602081019050919050565b828183375f83830152505050565b5f61069161068c84610641565b610627565b9050828152602081018484840111156106ad576106ac6105b5565b5b6106b8848285610671565b509392505050565b5f82601f8301126106d4576106d36105b1565b5b81356106e484826020860161067f565b91505092915050565b5f6020828403121561070257610701610515565b5b5f82013567ffffffffffffffff81111561071f5761071e610519565b5b61072b848285016106c0565b91505092915050565b5f6020828403121561074957610748610515565b5b5f6107568482850161053c565b91505092915050565b6107688161051d565b82525050565b5f81519050919050565b5f82825260208201905092915050565b8281835e5f83830152505050565b5f6107a08261076e565b6107aa8185610778565b93506107ba818560208601610788565b6107c3816105b9565b840191505092915050565b7f4e487b71000000000000000000000000000000000000000000000000000000005f52602160045260245ffd5b6003811061080c5761080b6107ce565b5b50565b5f81905061081c826107fb565b919050565b5f61082b8261080f565b9050919050565b61083b81610821565b82525050565b5f606083015f8301516108565f86018261075f565b506020830151848203602086015261086e8282610796565b91505060408301516108836040860182610832565b508091505092915050565b5f6020820190508181035f8301526108a68184610841565b905092915050565b5f82825260208201905092915050565b7f44617461537472756374757265733a20546f646f204944206e6f7420666f756e5f8201527f6400000000000000000000000000000000000000000000000000000000000000602082015250565b5f6109186021836108ae565b9150610923826108be565b604082019050919050565b5f6020820190508181035f8301526109458161090c565b9050919050565b7f4e487b71000000000000000000000000000000000000000000000000000000005f52602260045260245ffd5b5f600282049050600182168061099057607f821691505b6020821081036109a3576109a261094c565b5b50919050565b5f819050815f5260205f209050919050565b5f6020601f8301049050919050565b5f82821b905092915050565b5f60088302610a057fffffffffffffffffffffffffffffffffffffffffffffffffffffffffffffffff826109ca565b610a0f86836109ca565b95508019841693508086168417925050509392505050565b5f819050919050565b5f610a4a610a45610a408461051d565b610a27565b61051d565b9050919050565b5f819050919050565b610a6383610a30565b610a77610a6f82610a51565b8484546109d6565b825550505050565b5f90565b610a8b610a7f565b610a96818484610a5a565b505050565b5b81811015610ab957610aae5f82610a83565b600181019050610a9c565b5050565b601f821115610afe57610acf816109a9565b610ad8846109bb565b81016020851015610ae7578190505b610afb610af3856109bb565b830182610a9b565b50505b505050565b5f82821c905092915050565b5f610b1e5f1984600802610b03565b1980831691505092915050565b5f610b368383610b0f565b9150826002028217905092915050565b610b4f8261076e565b67ffffffffffffffff811115610b6857610b676105c9565b5b610b728254610979565b610b7d828285610abd565b5f60209050601f831160018114610bae575f8415610b9c578287015190505b610ba68582610b2b565b865550610c0d565b601f198416610bbc866109a9565b5f5b82811015610be357848901518255600182019150602085019450602081019050610bbe565b86831015610c005784890151610bfc601f891682610b0f565b8355505b6001600288020188555050505b505050505050565b7f4e487b71000000000000000000000000000000000000000000000000000000005f52601160045260245ffd5b5f610c4c8261051d565b9150610c578361051d565b9250828201905080821115610c6f57610c6e610c15565b5b92915050565b610c7e8161051d565b82525050565b7f4e657720746f646f206974656d206164646564000000000000000000000000005f82015250565b5f610cb86013836108ae565b9150610cc382610c84565b602082019050919050565b5f604082019050610ce15f830184610c75565b8181036020830152610cf281610cac565b90509291505056fea2646970667358221220f9018cbb087595dda5b1fca9328c8a3c98bbf17a448ca0167d6bd959671a648564736f6c634300081a0033",
					"opcodes": "PUSH1 0x80 PUSH1 0x40 MSTORE CALLVALUE DUP1 ISZERO PUSH1 0xE JUMPI PUSH0 DUP1 REVERT JUMPDEST POP PUSH2 0xD30 DUP1 PUSH2 0x1C PUSH0 CODECOPY PUSH0 RETURN INVALID PUSH1 0x80 PUSH1 0x40 MSTORE CALLVALUE DUP1 ISZERO PUSH2 0xF JUMPI PUSH0 DUP1 REVERT JUMPDEST POP PUSH1 0x4 CALLDATASIZE LT PUSH2 0x3F JUMPI PUSH0 CALLDATALOAD PUSH1 0xE0 SHR DUP1 PUSH4 0x3B6AC521 EQ PUSH2 0x43 JUMPI DUP1 PUSH4 0x95FFEBF5 EQ PUSH2 0x5F JUMPI DUP1 PUSH4 0xDD68AFB6 EQ PUSH2 0x7B JUMPI JUMPDEST PUSH0 DUP1 REVERT JUMPDEST PUSH2 0x5D PUSH1 0x4 DUP1 CALLDATASIZE SUB DUP2 ADD SWAP1 PUSH2 0x58 SWAP2 SWAP1 PUSH2 0x573 JUMP JUMPDEST PUSH2 0xAB JUMP JUMPDEST STOP JUMPDEST PUSH2 0x79 PUSH1 0x4 DUP1 CALLDATASIZE SUB DUP2 ADD SWAP1 PUSH2 0x74 SWAP2 SWAP1 PUSH2 0x6ED JUMP JUMPDEST PUSH2 0x287 JUMP JUMPDEST STOP JUMPDEST PUSH2 0x95 PUSH1 0x4 DUP1 CALLDATASIZE SUB DUP2 ADD SWAP1 PUSH2 0x90 SWAP2 SWAP1 PUSH2 0x734 JUMP JUMPDEST PUSH2 0x389 JUMP JUMPDEST PUSH1 0x40 MLOAD PUSH2 0xA2 SWAP2 SWAP1 PUSH2 0x88E JUMP JUMPDEST PUSH1 0x40 MLOAD DUP1 SWAP2 SUB SWAP1 RETURN JUMPDEST DUP2 PUSH0 DUP2 GT DUP1 ISZERO PUSH2 0xC0 JUMPI POP PUSH1 0x1 DUP1 SLOAD SWAP1 POP DUP2 GT ISZERO JUMPDEST PUSH2 0xFF JUMPI PUSH1 0x40 MLOAD PUSH32 0x8C379A000000000000000000000000000000000000000000000000000000000 DUP2 MSTORE PUSH1 0x4 ADD PUSH2 0xF6 SWAP1 PUSH2 0x92E JUMP JUMPDEST PUSH1 0x40 MLOAD DUP1 SWAP2 SUB SWAP1 REVERT JUMPDEST PUSH0 DUP1 PUSH0 DUP6 DUP2 MSTORE PUSH1 0x20 ADD SWAP1 DUP2 MSTORE PUSH1 0x20 ADD PUSH0 KECCAK256 PUSH1 0x40 MLOAD DUP1 PUSH1 0x60 ADD PUSH1 0x40 MSTORE SWAP1 DUP2 PUSH0 DUP3 ADD SLOAD DUP2 MSTORE PUSH1 0x20 ADD PUSH1 0x1 DUP3 ADD DUP1 SLOAD PUSH2 0x134 SWAP1 PUSH2 0x979 JUMP JUMPDEST DUP1 PUSH1 0x1F ADD PUSH1 0x20 DUP1 SWAP2 DIV MUL PUSH1 0x20 ADD PUSH1 0x40 MLOAD SWAP1 DUP2 ADD PUSH1 0x40 MSTORE DUP1 SWAP3 SWAP2 SWAP1 DUP2 DUP2 MSTORE PUSH1 0x20 ADD DUP3 DUP1 SLOAD PUSH2 0x160 SWAP1 PUSH2 0x979 JUMP JUMPDEST DUP1 ISZERO PUSH2 0x1AB JUMPI DUP1 PUSH1 0x1F LT PUSH2 0x182 JUMPI PUSH2 0x100 DUP1 DUP4 SLOAD DIV MUL DUP4 MSTORE SWAP2 PUSH1 0x20 ADD SWAP2 PUSH2 0x1AB JUMP JUMPDEST DUP3 ADD SWAP2 SWAP1 PUSH0 MSTORE PUSH1 0x20 PUSH0 KECCAK256 SWAP1 JUMPDEST DUP2 SLOAD DUP2 MSTORE SWAP1 PUSH1 0x1 ADD SWAP1 PUSH1 0x20 ADD DUP1 DUP4 GT PUSH2 0x18E JUMPI DUP3 SWAP1 SUB PUSH1 0x1F AND DUP3 ADD SWAP2 JUMPDEST POP POP POP POP POP DUP2 MSTORE PUSH1 0x20 ADD PUSH1 0x2 DUP3 ADD PUSH0 SWAP1 SLOAD SWAP1 PUSH2 0x100 EXP SWAP1 DIV PUSH1 0xFF AND PUSH1 0x2 DUP2 GT ISZERO PUSH2 0x1D8 JUMPI PUSH2 0x1D7 PUSH2 0x7CE JUMP JUMPDEST JUMPDEST PUSH1 0x2 DUP2 GT ISZERO PUSH2 0x1EA JUMPI PUSH2 0x1E9 PUSH2 0x7CE JUMP JUMPDEST JUMPDEST DUP2 MSTORE POP POP SWAP1 POP DUP3 DUP2 PUSH1 0x40 ADD SWAP1 PUSH1 0x2 DUP2 GT ISZERO PUSH2 0x208 JUMPI PUSH2 0x207 PUSH2 0x7CE JUMP JUMPDEST JUMPDEST SWAP1 DUP2 PUSH1 0x2 DUP2 GT ISZERO PUSH2 0x21C JUMPI PUSH2 0x21B PUSH2 0x7CE JUMP JUMPDEST JUMPDEST DUP2 MSTORE POP POP DUP1 PUSH0 DUP1 DUP7 DUP2 MSTORE PUSH1 0x20 ADD SWAP1 DUP2 MSTORE PUSH1 0x20 ADD PUSH0 KECCAK256 PUSH0 DUP3 ADD MLOAD DUP2 PUSH0 ADD SSTORE PUSH1 0x20 DUP3 ADD MLOAD DUP2 PUSH1 0x1 ADD SWAP1 DUP2 PUSH2 0x24E SWAP2 SWAP1 PUSH2 0xB46 JUMP JUMPDEST POP PUSH1 0x40 DUP3 ADD MLOAD DUP2 PUSH1 0x2 ADD PUSH0 PUSH2 0x100 EXP DUP2 SLOAD DUP2 PUSH1 0xFF MUL NOT AND SWAP1 DUP4 PUSH1 0x2 DUP2 GT ISZERO PUSH2 0x279 JUMPI PUSH2 0x278 PUSH2 0x7CE JUMP JUMPDEST JUMPDEST MUL OR SWAP1 SSTORE POP SWAP1 POP POP POP POP POP POP JUMP JUMPDEST PUSH0 PUSH1 0x1 DUP1 DUP1 SLOAD SWAP1 POP PUSH2 0x299 SWAP2 SWAP1 PUSH2 0xC42 JUMP JUMPDEST SWAP1 POP PUSH1 0x40 MLOAD DUP1 PUSH1 0x60 ADD PUSH1 0x40 MSTORE DUP1 DUP3 DUP2 MSTORE PUSH1 0x20 ADD DUP4 DUP2 MSTORE PUSH1 0x20 ADD PUSH0 PUSH1 0x2 DUP2 GT ISZERO PUSH2 0x2C5 JUMPI PUSH2 0x2C4 PUSH2 0x7CE JUMP JUMPDEST JUMPDEST DUP2 MSTORE POP PUSH0 DUP1 DUP4 DUP2 MSTORE PUSH1 0x20 ADD SWAP1 DUP2 MSTORE PUSH1 0x20 ADD PUSH0 KECCAK256 PUSH0 DUP3 ADD MLOAD DUP2 PUSH0 ADD SSTORE PUSH1 0x20 DUP3 ADD MLOAD DUP2 PUSH1 0x1 ADD SWAP1 DUP2 PUSH2 0x2F5 SWAP2 SWAP1 PUSH2 0xB46 JUMP JUMPDEST POP PUSH1 0x40 DUP3 ADD MLOAD DUP2 PUSH1 0x2 ADD PUSH0 PUSH2 0x100 EXP DUP2 SLOAD DUP2 PUSH1 0xFF MUL NOT AND SWAP1 DUP4 PUSH1 0x2 DUP2 GT ISZERO PUSH2 0x320 JUMPI PUSH2 0x31F PUSH2 0x7CE JUMP JUMPDEST JUMPDEST MUL OR SWAP1 SSTORE POP SWAP1 POP POP PUSH1 0x1 DUP2 SWAP1 DUP1 PUSH1 0x1 DUP2 SLOAD ADD DUP1 DUP3 SSTORE DUP1 SWAP2 POP POP PUSH1 0x1 SWAP1 SUB SWAP1 PUSH0 MSTORE PUSH1 0x20 PUSH0 KECCAK256 ADD PUSH0 SWAP1 SWAP2 SWAP1 SWAP2 SWAP1 SWAP2 POP SSTORE PUSH32 0x6BC1A4D9DD456584B8D64C1012188014D261EFCF8EFD8149AD6A3F297717F277 DUP2 PUSH1 0x40 MLOAD PUSH2 0x37D SWAP2 SWAP1 PUSH2 0xCCE JUMP JUMPDEST PUSH1 0x40 MLOAD DUP1 SWAP2 SUB SWAP1 LOG1 POP POP JUMP JUMPDEST PUSH2 0x391 PUSH2 0x4DB JUMP JUMPDEST DUP2 PUSH0 DUP2 GT DUP1 ISZERO PUSH2 0x3A6 JUMPI POP PUSH1 0x1 DUP1 SLOAD SWAP1 POP DUP2 GT ISZERO JUMPDEST PUSH2 0x3E5 JUMPI PUSH1 0x40 MLOAD PUSH32 0x8C379A000000000000000000000000000000000000000000000000000000000 DUP2 MSTORE PUSH1 0x4 ADD PUSH2 0x3DC SWAP1 PUSH2 0x92E JUMP JUMPDEST PUSH1 0x40 MLOAD DUP1 SWAP2 SUB SWAP1 REVERT JUMPDEST PUSH0 DUP1 DUP5 DUP2 MSTORE PUSH1 0x20 ADD SWAP1 DUP2 MSTORE PUSH1 0x20 ADD PUSH0 KECCAK256 PUSH1 0x40 MLOAD DUP1 PUSH1 0x60 ADD PUSH1 0x40 MSTORE SWAP1 DUP2 PUSH0 DUP3 ADD SLOAD DUP2 MSTORE PUSH1 0x20 ADD PUSH1 0x1 DUP3 ADD DUP1 SLOAD PUSH2 0x419 SWAP1 PUSH2 0x979 JUMP JUMPDEST DUP1 PUSH1 0x1F ADD PUSH1 0x20 DUP1 SWAP2 DIV MUL PUSH1 0x20 ADD PUSH1 0x40 MLOAD SWAP1 DUP2 ADD PUSH1 0x40 MSTORE DUP1 SWAP3 SWAP2 SWAP1 DUP2 DUP2 MSTORE PUSH1 0x20 ADD DUP3 DUP1 SLOAD PUSH2 0x445 SWAP1 PUSH2 0x979 JUMP JUMPDEST DUP1 ISZERO PUSH2 0x490 JUMPI DUP1 PUSH1 0x1F LT PUSH2 0x467 JUMPI PUSH2 0x100 DUP1 DUP4 SLOAD DIV MUL DUP4 MSTORE SWAP2 PUSH1 0x20 ADD SWAP2 PUSH2 0x490 JUMP JUMPDEST DUP3 ADD SWAP2 SWAP1 PUSH0 MSTORE PUSH1 0x20 PUSH0 KECCAK256 SWAP1 JUMPDEST DUP2 SLOAD DUP2 MSTORE SWAP1 PUSH1 0x1 ADD SWAP1 PUSH1 0x20 ADD DUP1 DUP4 GT PUSH2 0x473 JUMPI DUP3 SWAP1 SUB PUSH1 0x1F AND DUP3 ADD SWAP2 JUMPDEST POP POP POP POP POP DUP2 MSTORE PUSH1 0x20 ADD PUSH1 0x2 DUP3 ADD PUSH0 SWAP1 SLOAD SWAP1 PUSH2 0x100 EXP SWAP1 DIV PUSH1 0xFF AND PUSH1 0x2 DUP2 GT ISZERO PUSH2 0x4BD JUMPI PUSH2 0x4BC PUSH2 0x7CE JUMP JUMPDEST JUMPDEST PUSH1 0x2 DUP2 GT ISZERO PUSH2 0x4CF JUMPI PUSH2 0x4CE PUSH2 0x7CE JUMP JUMPDEST JUMPDEST DUP2 MSTORE POP POP SWAP2 POP POP SWAP2 SWAP1 POP JUMP JUMPDEST PUSH1 0x40 MLOAD DUP1 PUSH1 0x60 ADD PUSH1 0x40 MSTORE DUP1 PUSH0 DUP2 MSTORE PUSH1 0x20 ADD PUSH1 0x60 DUP2 MSTORE PUSH1 0x20 ADD PUSH0 PUSH1 0x2 DUP2 GT ISZERO PUSH2 0x506 JUMPI PUSH2 0x505 PUSH2 0x7CE JUMP JUMPDEST JUMPDEST DUP2 MSTORE POP SWAP1 JUMP JUMPDEST PUSH0 PUSH1 0x40 MLOAD SWAP1 POP SWAP1 JUMP JUMPDEST PUSH0 DUP1 REVERT JUMPDEST PUSH0 DUP1 REVERT JUMPDEST PUSH0 DUP2 SWAP1 POP SWAP2 SWAP1 POP JUMP JUMPDEST PUSH2 0x52F DUP2 PUSH2 0x51D JUMP JUMPDEST DUP2 EQ PUSH2 0x539 JUMPI PUSH0 DUP1 REVERT JUMPDEST POP JUMP JUMPDEST PUSH0 DUP2 CALLDATALOAD SWAP1 POP PUSH2 0x54A DUP2 PUSH2 0x526 JUMP JUMPDEST SWAP3 SWAP2 POP POP JUMP JUMPDEST PUSH1 0x3 DUP2 LT PUSH2 0x55C JUMPI PUSH0 DUP1 REVERT JUMPDEST POP JUMP JUMPDEST PUSH0 DUP2 CALLDATALOAD SWAP1 POP PUSH2 0x56D DUP2 PUSH2 0x550 JUMP JUMPDEST SWAP3 SWAP2 POP POP JUMP JUMPDEST PUSH0 DUP1 PUSH1 0x40 DUP4 DUP6 SUB SLT ISZERO PUSH2 0x589 JUMPI PUSH2 0x588 PUSH2 0x515 JUMP JUMPDEST JUMPDEST PUSH0 PUSH2 0x596 DUP6 DUP3 DUP7 ADD PUSH2 0x53C JUMP JUMPDEST SWAP3 POP POP PUSH1 0x20 PUSH2 0x5A7 DUP6 DUP3 DUP7 ADD PUSH2 0x55F JUMP JUMPDEST SWAP2 POP POP SWAP3 POP SWAP3 SWAP1 POP JUMP JUMPDEST PUSH0 DUP1 REVERT JUMPDEST PUSH0 DUP1 REVERT JUMPDEST PUSH0 PUSH1 0x1F NOT PUSH1 0x1F DUP4 ADD AND SWAP1 POP SWAP2 SWAP1 POP JUMP JUMPDEST PUSH32 0x4E487B7100000000000000000000000000000000000000000000000000000000 PUSH0 MSTORE PUSH1 0x41 PUSH1 0x4 MSTORE PUSH1 0x24 PUSH0 REVERT JUMPDEST PUSH2 0x5FF DUP3 PUSH2 0x5B9 JUMP JUMPDEST DUP2 ADD DUP2 DUP2 LT PUSH8 0xFFFFFFFFFFFFFFFF DUP3 GT OR ISZERO PUSH2 0x61E JUMPI PUSH2 0x61D PUSH2 0x5C9 JUMP JUMPDEST JUMPDEST DUP1 PUSH1 0x40 MSTORE POP POP POP JUMP JUMPDEST PUSH0 PUSH2 0x630 PUSH2 0x50C JUMP JUMPDEST SWAP1 POP PUSH2 0x63C DUP3 DUP3 PUSH2 0x5F6 JUMP JUMPDEST SWAP2 SWAP1 POP JUMP JUMPDEST PUSH0 PUSH8 0xFFFFFFFFFFFFFFFF DUP3 GT ISZERO PUSH2 0x65B JUMPI PUSH2 0x65A PUSH2 0x5C9 JUMP JUMPDEST JUMPDEST PUSH2 0x664 DUP3 PUSH2 0x5B9 JUMP JUMPDEST SWAP1 POP PUSH1 0x20 DUP2 ADD SWAP1 POP SWAP2 SWAP1 POP JUMP JUMPDEST DUP3 DUP2 DUP4 CALLDATACOPY PUSH0 DUP4 DUP4 ADD MSTORE POP POP POP JUMP JUMPDEST PUSH0 PUSH2 0x691 PUSH2 0x68C DUP5 PUSH2 0x641 JUMP JUMPDEST PUSH2 0x627 JUMP JUMPDEST SWAP1 POP DUP3 DUP2 MSTORE PUSH1 0x20 DUP2 ADD DUP5 DUP5 DUP5 ADD GT ISZERO PUSH2 0x6AD JUMPI PUSH2 0x6AC PUSH2 0x5B5 JUMP JUMPDEST JUMPDEST PUSH2 0x6B8 DUP5 DUP3 DUP6 PUSH2 0x671 JUMP JUMPDEST POP SWAP4 SWAP3 POP POP POP JUMP JUMPDEST PUSH0 DUP3 PUSH1 0x1F DUP4 ADD SLT PUSH2 0x6D4 JUMPI PUSH2 0x6D3 PUSH2 0x5B1 JUMP JUMPDEST JUMPDEST DUP2 CALLDATALOAD PUSH2 0x6E4 DUP5 DUP3 PUSH1 0x20 DUP7 ADD PUSH2 0x67F JUMP JUMPDEST SWAP2 POP POP SWAP3 SWAP2 POP POP JUMP JUMPDEST PUSH0 PUSH1 0x20 DUP3 DUP5 SUB SLT ISZERO PUSH2 0x702 JUMPI PUSH2 0x701 PUSH2 0x515 JUMP JUMPDEST JUMPDEST PUSH0 DUP3 ADD CALLDATALOAD PUSH8 0xFFFFFFFFFFFFFFFF DUP2 GT ISZERO PUSH2 0x71F JUMPI PUSH2 0x71E PUSH2 0x519 JUMP JUMPDEST JUMPDEST PUSH2 0x72B DUP5 DUP3 DUP6 ADD PUSH2 0x6C0 JUMP JUMPDEST SWAP2 POP POP SWAP3 SWAP2 POP POP JUMP JUMPDEST PUSH0 PUSH1 0x20 DUP3 DUP5 SUB SLT ISZERO PUSH2 0x749 JUMPI PUSH2 0x748 PUSH2 0x515 JUMP JUMPDEST JUMPDEST PUSH0 PUSH2 0x756 DUP5 DUP3 DUP6 ADD PUSH2 0x53C JUMP JUMPDEST SWAP2 POP POP SWAP3 SWAP2 POP POP JUMP JUMPDEST PUSH2 0x768 DUP2 PUSH2 0x51D JUMP JUMPDEST DUP3 MSTORE POP POP JUMP JUMPDEST PUSH0 DUP2 MLOAD SWAP1 POP SWAP2 SWAP1 POP JUMP JUMPDEST PUSH0 DUP3 DUP3 MSTORE PUSH1 0x20 DUP3 ADD SWAP1 POP SWAP3 SWAP2 POP POP JUMP JUMPDEST DUP3 DUP2 DUP4 MCOPY PUSH0 DUP4 DUP4 ADD MSTORE POP POP POP JUMP JUMPDEST PUSH0 PUSH2 0x7A0 DUP3 PUSH2 0x76E JUMP JUMPDEST PUSH2 0x7AA DUP2 DUP6 PUSH2 0x778 JUMP JUMPDEST SWAP4 POP PUSH2 0x7BA DUP2 DUP6 PUSH1 0x20 DUP7 ADD PUSH2 0x788 JUMP JUMPDEST PUSH2 0x7C3 DUP2 PUSH2 0x5B9 JUMP JUMPDEST DUP5 ADD SWAP2 POP POP SWAP3 SWAP2 POP POP JUMP JUMPDEST PUSH32 0x4E487B7100000000000000000000000000000000000000000000000000000000 PUSH0 MSTORE PUSH1 0x21 PUSH1 0x4 MSTORE PUSH1 0x24 PUSH0 REVERT JUMPDEST PUSH1 0x3 DUP2 LT PUSH2 0x80C JUMPI PUSH2 0x80B PUSH2 0x7CE JUMP JUMPDEST JUMPDEST POP JUMP JUMPDEST PUSH0 DUP2 SWAP1 POP PUSH2 0x81C DUP3 PUSH2 0x7FB JUMP JUMPDEST SWAP2 SWAP1 POP JUMP JUMPDEST PUSH0 PUSH2 0x82B DUP3 PUSH2 0x80F JUMP JUMPDEST SWAP1 POP SWAP2 SWAP1 POP JUMP JUMPDEST PUSH2 0x83B DUP2 PUSH2 0x821 JUMP JUMPDEST DUP3 MSTORE POP POP JUMP JUMPDEST PUSH0 PUSH1 0x60 DUP4 ADD PUSH0 DUP4 ADD MLOAD PUSH2 0x856 PUSH0 DUP7 ADD DUP3 PUSH2 0x75F JUMP JUMPDEST POP PUSH1 0x20 DUP4 ADD MLOAD DUP5 DUP3 SUB PUSH1 0x20 DUP7 ADD MSTORE PUSH2 0x86E DUP3 DUP3 PUSH2 0x796 JUMP JUMPDEST SWAP2 POP POP PUSH1 0x40 DUP4 ADD MLOAD PUSH2 0x883 PUSH1 0x40 DUP7 ADD DUP3 PUSH2 0x832 JUMP JUMPDEST POP DUP1 SWAP2 POP POP SWAP3 SWAP2 POP POP JUMP JUMPDEST PUSH0 PUSH1 0x20 DUP3 ADD SWAP1 POP DUP2 DUP2 SUB PUSH0 DUP4 ADD MSTORE PUSH2 0x8A6 DUP2 DUP5 PUSH2 0x841 JUMP JUMPDEST SWAP1 POP SWAP3 SWAP2 POP POP JUMP JUMPDEST PUSH0 DUP3 DUP3 MSTORE PUSH1 0x20 DUP3 ADD SWAP1 POP SWAP3 SWAP2 POP POP JUMP JUMPDEST PUSH32 0x44617461537472756374757265733A20546F646F204944206E6F7420666F756E PUSH0 DUP3 ADD MSTORE PUSH32 0x6400000000000000000000000000000000000000000000000000000000000000 PUSH1 0x20 DUP3 ADD MSTORE POP JUMP JUMPDEST PUSH0 PUSH2 0x918 PUSH1 0x21 DUP4 PUSH2 0x8AE JUMP JUMPDEST SWAP2 POP PUSH2 0x923 DUP3 PUSH2 0x8BE JUMP JUMPDEST PUSH1 0x40 DUP3 ADD SWAP1 POP SWAP2 SWAP1 POP JUMP JUMPDEST PUSH0 PUSH1 0x20 DUP3 ADD SWAP1 POP DUP2 DUP2 SUB PUSH0 DUP4 ADD MSTORE PUSH2 0x945 DUP2 PUSH2 0x90C JUMP JUMPDEST SWAP1 POP SWAP2 SWAP1 POP JUMP JUMPDEST PUSH32 0x4E487B7100000000000000000000000000000000000000000000000000000000 PUSH0 MSTORE PUSH1 0x22 PUSH1 0x4 MSTORE PUSH1 0x24 PUSH0 REVERT JUMPDEST PUSH0 PUSH1 0x2 DUP3 DIV SWAP1 POP PUSH1 0x1 DUP3 AND DUP1 PUSH2 0x990 JUMPI PUSH1 0x7F DUP3 AND SWAP2 POP JUMPDEST PUSH1 0x20 DUP3 LT DUP2 SUB PUSH2 0x9A3 JUMPI PUSH2 0x9A2 PUSH2 0x94C JUMP JUMPDEST JUMPDEST POP SWAP2 SWAP1 POP JUMP JUMPDEST PUSH0 DUP2 SWAP1 POP DUP2 PUSH0 MSTORE PUSH1 0x20 PUSH0 KECCAK256 SWAP1 POP SWAP2 SWAP1 POP JUMP JUMPDEST PUSH0 PUSH1 0x20 PUSH1 0x1F DUP4 ADD DIV SWAP1 POP SWAP2 SWAP1 POP JUMP JUMPDEST PUSH0 DUP3 DUP3 SHL SWAP1 POP SWAP3 SWAP2 POP POP JUMP JUMPDEST PUSH0 PUSH1 0x8 DUP4 MUL PUSH2 0xA05 PUSH32 0xFFFFFFFFFFFFFFFFFFFFFFFFFFFFFFFFFFFFFFFFFFFFFFFFFFFFFFFFFFFFFFFF DUP3 PUSH2 0x9CA JUMP JUMPDEST PUSH2 0xA0F DUP7 DUP4 PUSH2 0x9CA JUMP JUMPDEST SWAP6 POP DUP1 NOT DUP5 AND SWAP4 POP DUP1 DUP7 AND DUP5 OR SWAP3 POP POP POP SWAP4 SWAP3 POP POP POP JUMP JUMPDEST PUSH0 DUP2 SWAP1 POP SWAP2 SWAP1 POP JUMP JUMPDEST PUSH0 PUSH2 0xA4A PUSH2 0xA45 PUSH2 0xA40 DUP5 PUSH2 0x51D JUMP JUMPDEST PUSH2 0xA27 JUMP JUMPDEST PUSH2 0x51D JUMP JUMPDEST SWAP1 POP SWAP2 SWAP1 POP JUMP JUMPDEST PUSH0 DUP2 SWAP1 POP SWAP2 SWAP1 POP JUMP JUMPDEST PUSH2 0xA63 DUP4 PUSH2 0xA30 JUMP JUMPDEST PUSH2 0xA77 PUSH2 0xA6F DUP3 PUSH2 0xA51 JUMP JUMPDEST DUP5 DUP5 SLOAD PUSH2 0x9D6 JUMP JUMPDEST DUP3 SSTORE POP POP POP POP JUMP JUMPDEST PUSH0 SWAP1 JUMP JUMPDEST PUSH2 0xA8B PUSH2 0xA7F JUMP JUMPDEST PUSH2 0xA96 DUP2 DUP5 DUP5 PUSH2 0xA5A JUMP JUMPDEST POP POP POP JUMP JUMPDEST JUMPDEST DUP2 DUP2 LT ISZERO PUSH2 0xAB9 JUMPI PUSH2 0xAAE PUSH0 DUP3 PUSH2 0xA83 JUMP JUMPDEST PUSH1 0x1 DUP2 ADD SWAP1 POP PUSH2 0xA9C JUMP JUMPDEST POP POP JUMP JUMPDEST PUSH1 0x1F DUP3 GT ISZERO PUSH2 0xAFE JUMPI PUSH2 0xACF DUP2 PUSH2 0x9A9 JUMP JUMPDEST PUSH2 0xAD8 DUP5 PUSH2 0x9BB JUMP JUMPDEST DUP2 ADD PUSH1 0x20 DUP6 LT ISZERO PUSH2 0xAE7 JUMPI DUP2 SWAP1 POP JUMPDEST PUSH2 0xAFB PUSH2 0xAF3 DUP6 PUSH2 0x9BB JUMP JUMPDEST DUP4 ADD DUP3 PUSH2 0xA9B JUMP JUMPDEST POP POP JUMPDEST POP POP POP JUMP JUMPDEST PUSH0 DUP3 DUP3 SHR SWAP1 POP SWAP3 SWAP2 POP POP JUMP JUMPDEST PUSH0 PUSH2 0xB1E PUSH0 NOT DUP5 PUSH1 0x8 MUL PUSH2 0xB03 JUMP JUMPDEST NOT DUP1 DUP4 AND SWAP2 POP POP SWAP3 SWAP2 POP POP JUMP JUMPDEST PUSH0 PUSH2 0xB36 DUP4 DUP4 PUSH2 0xB0F JUMP JUMPDEST SWAP2 POP DUP3 PUSH1 0x2 MUL DUP3 OR SWAP1 POP SWAP3 SWAP2 POP POP JUMP JUMPDEST PUSH2 0xB4F DUP3 PUSH2 0x76E JUMP JUMPDEST PUSH8 0xFFFFFFFFFFFFFFFF DUP2 GT ISZERO PUSH2 0xB68 JUMPI PUSH2 0xB67 PUSH2 0x5C9 JUMP JUMPDEST JUMPDEST PUSH2 0xB72 DUP3 SLOAD PUSH2 0x979 JUMP JUMPDEST PUSH2 0xB7D DUP3 DUP3 DUP6 PUSH2 0xABD JUMP JUMPDEST PUSH0 PUSH1 0x20 SWAP1 POP PUSH1 0x1F DUP4 GT PUSH1 0x1 DUP2 EQ PUSH2 0xBAE JUMPI PUSH0 DUP5 ISZERO PUSH2 0xB9C JUMPI DUP3 DUP8 ADD MLOAD SWAP1 POP JUMPDEST PUSH2 0xBA6 DUP6 DUP3 PUSH2 0xB2B JUMP JUMPDEST DUP7 SSTORE POP PUSH2 0xC0D JUMP JUMPDEST PUSH1 0x1F NOT DUP5 AND PUSH2 0xBBC DUP7 PUSH2 0x9A9 JUMP JUMPDEST PUSH0 JUMPDEST DUP3 DUP2 LT ISZERO PUSH2 0xBE3 JUMPI DUP5 DUP10 ADD MLOAD DUP3 SSTORE PUSH1 0x1 DUP3 ADD SWAP2 POP PUSH1 0x20 DUP6 ADD SWAP5 POP PUSH1 0x20 DUP2 ADD SWAP1 POP PUSH2 0xBBE JUMP JUMPDEST DUP7 DUP4 LT ISZERO PUSH2 0xC00 JUMPI DUP5 DUP10 ADD MLOAD PUSH2 0xBFC PUSH1 0x1F DUP10 AND DUP3 PUSH2 0xB0F JUMP JUMPDEST DUP4 SSTORE POP JUMPDEST PUSH1 0x1 PUSH1 0x2 DUP9 MUL ADD DUP9 SSTORE POP POP POP JUMPDEST POP POP POP POP POP POP JUMP JUMPDEST PUSH32 0x4E487B7100000000000000000000000000000000000000000000000000000000 PUSH0 MSTORE PUSH1 0x11 PUSH1 0x4 MSTORE PUSH1 0x24 PUSH0 REVERT JUMPDEST PUSH0 PUSH2 0xC4C DUP3 PUSH2 0x51D JUMP JUMPDEST SWAP2 POP PUSH2 0xC57 DUP4 PUSH2 0x51D JUMP JUMPDEST SWAP3 POP DUP3 DUP3 ADD SWAP1 POP DUP1 DUP3 GT ISZERO PUSH2 0xC6F JUMPI PUSH2 0xC6E PUSH2 0xC15 JUMP JUMPDEST JUMPDEST SWAP3 SWAP2 POP POP JUMP JUMPDEST PUSH2 0xC7E DUP2 PUSH2 0x51D JUMP JUMPDEST DUP3 MSTORE POP POP JUMP JUMPDEST PUSH32 0x4E657720746F646F206974656D20616464656400000000000000000000000000 PUSH0 DUP3 ADD MSTORE POP JUMP JUMPDEST PUSH0 PUSH2 0xCB8 PUSH1 0x13 DUP4 PUSH2 0x8AE JUMP JUMPDEST SWAP2 POP PUSH2 0xCC3 DUP3 PUSH2 0xC84 JUMP JUMPDEST PUSH1 0x20 DUP3 ADD SWAP1 POP SWAP2 SWAP1 POP JUMP JUMPDEST PUSH0 PUSH1 0x40 DUP3 ADD SWAP1 POP PUSH2 0xCE1 PUSH0 DUP4 ADD DUP5 PUSH2 0xC75 JUMP JUMPDEST DUP2 DUP2 SUB PUSH1 0x20 DUP4 ADD MSTORE PUSH2 0xCF2 DUP2 PUSH2 0xCAC JUMP JUMPDEST SWAP1 POP SWAP3 SWAP2 POP POP JUMP INVALID LOG2 PUSH5 0x6970667358 0x22 SLT KECCAK256 0xF9 ADD DUP13 0xBB ADDMOD PUSH22 0x95DDA5B1FCA9328C8A3C98BBF17A448CA0167D6BD959 PUSH8 0x1A648564736F6C63 NUMBER STOP ADDMOD BYTE STOP CALLER "
				},
				"gasEstimates": {
					"creation": {
						"codeDepositCost": "675200",
						"executionCost": "706",
						"totalCost": "675906"
					},
					"external": {
						"addTodo(string)": "infinite",
						"getTodo(uint256)": "infinite",
						"updateTodo(uint256,uint8)": "infinite"
					}
				},
				"methodIdentifiers": {
					"addTodo(string)": "95ffebf5",
					"getTodo(uint256)": "dd68afb6",
					"updateTodo(uint256,uint8)": "3b6ac521"
				}
			},
			"storageLayout": {
				"storage": [
					{
						"astId": 18,
						"contract": "contracts/Datastructures.sol:DataStructures",
						"label": "todos",
						"offset": 0,
						"slot": "0",
						"type": "t_mapping(t_uint256,t_struct(Todo)13_storage)"
					},
					{
						"astId": 21,
						"contract": "contracts/Datastructures.sol:DataStructures",
						"label": "todoIDs",
						"offset": 0,
						"slot": "1",
						"type": "t_array(t_uint256)dyn_storage"
					}
				],
				"types": {
					"t_array(t_uint256)dyn_storage": {
						"base": "t_uint256",
						"encoding": "dynamic_array",
						"label": "uint256[]",
						"numberOfBytes": "32"
					},
					"t_enum(Status)5": {
						"encoding": "inplace",
						"label": "enum DataStructures.Status",
						"numberOfBytes": "1"
					},
					"t_mapping(t_uint256,t_struct(Todo)13_storage)": {
						"encoding": "mapping",
						"key": "t_uint256",
						"label": "mapping(uint256 => struct DataStructures.Todo)",
						"numberOfBytes": "32",
						"value": "t_struct(Todo)13_storage"
					},
					"t_string_storage": {
						"encoding": "bytes",
						"label": "string",
						"numberOfBytes": "32"
					},
					"t_struct(Todo)13_storage": {
						"encoding": "inplace",
						"label": "struct DataStructures.Todo",
						"members": [
							{
								"astId": 7,
								"contract": "contracts/Datastructures.sol:DataStructures",
								"label": "id",
								"offset": 0,
								"slot": "0",
								"type": "t_uint256"
							},
							{
								"astId": 9,
								"contract": "contracts/Datastructures.sol:DataStructures",
								"label": "content",
								"offset": 0,
								"slot": "1",
								"type": "t_string_storage"
							},
							{
								"astId": 12,
								"contract": "contracts/Datastructures.sol:DataStructures",
								"label": "status",
								"offset": 0,
								"slot": "2",
								"type": "t_enum(Status)5"
							}
						],
						"numberOfBytes": "96"
					},
					"t_uint256": {
						"encoding": "inplace",
						"label": "uint256",
						"numberOfBytes": "32"
					}
				}
			},
			"userdoc": {
				"kind": "user",
				"methods": {},
				"version": 1
			}
		}
	}
}